S0160000626C7565746F6F74685F727874782E7372656303
S1134000E03F00102D990000999900009999000053
S11340109999000099990000999900000000000006
S1134020000000000000000000000000999900005A
S113403099990000000000009999000099990000E6
S1134040999900001554000099990000999900006D
S11340509999000099990000999900009999000094
S11340609999000099990000999900009999000084
S11340709999000099990000999900009999000074
S11340809999000099990000999900009999000064
S11340909999000031550000999900009999000000
S11340A02199000099990000B959000099990000DC
S11340B09999000099990000999900009999000034
S11340C0999900009999000099990000044B0548BA
S11340D01B1A062B02D9044B03B11847704700BFC3
S11340E0630900106009001000000000054906483B
S11340F0091A891001EBD171491002D0034B03B1A5
S113410018477047600900106009001000000000A3
S113411010B5064C237843B9FFF7D8FF044B13B10D
S11341200448AFF300800123237010BD6009001020
S113413000000000FCBC000008B5084B1BB1084897
S11341400849AFF300800848036813B9BDE8084084
S1134150CCE7064B002BF9D09847F7E700000000A6
S1134160FCBC00006409001060090010000000009D
S1134170014600200246034600F08CB838B5084BCF
S1134180084DED1AAC1018BFED1805D0013C55F8D8
S1134190043D9847002CF9D1BDE8384007F0B8BD7C
S11341A01CBD000020BD000070B50F4E0F4D761BE6
S11341B0B61018BF002405D0013455F8043B9847C5
S11341C0A642F9D10A4E0B4D07F098FD761BB610A6
S11341D018BF002406D0013455F8043B9847A64282
S11341E0F9D170BD70BD00BF08BD000008BD00005E
S11341F010BD000008BD000070B4840746D0541EF2
S1134200002A41D0CDB2034602E0621EE4B3144654
S113421003F8015B9A07F8D1032C2ED9CDB245EAF5
S113422005250F2C45EA054519D9264603F1100248
S1134230103E0F2E42F8105C42F80C5C42F8085C09
S113424042F8045C02F11002F2D8A4F1100222F048
S11342500F0204F00F041032032C13440DD91E4630
S11342602246043A032A46F8045BFAD8221F22F0B5
S113427003020432134404F003042CB1C9B21C44F5
S113428003F8011BA342FBD170BC704714460346DC
S1134290C2E700BF2DE9F047254C0646256888464D
S11342A0D5F8484192469946C4B360681F2817DC84
S11342B0411C76B104EB8003C3F888A0D4F888517C
S11342C0012282401543022EC4F88851C3F8089194
S11342D01ED0831C6160002044F82380BDE8F08771
S11342E0144B03B34FF4C870AFF300800446D0B14D
S11342F0D5F84831002784E888003846C5F8484195
S11343000121C4F88871C4F88C71002EE1D0D1E782
S1134310D4F88C311A43C4F88C21DAE705F5A67475
S1134320C5F84841C1E74FF0FF30BDE8F08700BF52
S113433088B2000000000000024B13B10248FFF7EE
S113434017BF7047000000007D41000080B400AF3B
S1134350074B00221A70074B00221A60064B80227A
S11343601A70064B7F221A70BD465DF8047B7047B5
S1134370490A00104C0A0010040B0010B80B00107E
S113438080B483B000AF0346FB71144B1B785AB260
S113439097F907309342B8BF1346DAB20F4B1A703D
S11343A00F4B1B785AB297F907309342A8BF1346B4
S11343B0DAB20B4B1A7097F907301A02094B1B68D3
S11343C01344084A1360084B1B780133DAB2064BD6
S11343D01A700C37BD465DF8047B7047040B00105F
S11343E0B80B00104C0A0010490A001080B485B0C4
S11343F000AF1F4B1B78002B06D01E4B1B889BB2B3
S1134400A3F66213FB6001E00023FB601A4B1B78E8
S1134410002B08D0194B1B688033174A127893FB82
S1134420F2F3BB6001E00023BB60154AFB6832F87D
S113443013301AB213469B019B1A9B0013447B60F2
S1134440BA6813465B0013447A6813447B607B6844
S11344508033002B00DAFF331B1299B2084AFB6841
S113446022F813101437BD465DF8047B704700BF73
S11344707C0900109C040010490A00104C0A00102A
S1134480A009001080B582B000AF03460A46FB7154
S11344901346BB7197F9073013F1140F0DD097F938
S11344A0073013F1130F08DA97F907306FF077022A
S11344B09342B8BF1346DBB200E0EC23FB71FB79F7
S11344C03833DBB29BB203F0FC039AB2BB799BB2E4
S11344D003F003039BB213439BB29BB2062019461D
S11344E005F042FC084AFB79137097F9073013F181
S11344F0770FB4BF01230023DBB21A46034B1A70B3
S11345000837BD4680BD00BF4D0400107E09001071
S113451080B588B000AF03463960FB7104F0BAF986
S1134520F861FB69002B09D15E4B1B78DBB243F0C9
S11345300403DAB25B4B1A700023AFE0FB69FA792B
S11345401A70FB79042B13D1574B1B681B0DDAB27D
S1134550FB69DA70544B1B68C3F3130340F635420E
S113456002FB03F2514B1B681A44FB695A6008E0D2
S11345704F4B1B68DAB2FB69DA704E4B1A68FB6961
S11345805A604D4B1B889BB2DBB2623BDAB2FB69CB
S11345909A704A4B1B78DAB2FB695A72484B1B7803
S11345A0DAB2FB691A72474B1B78002B11D0424BCD
S11345B01B889BB2A3F66213434A32F813301BB232
S11345C08033002B00DAFF331B12DAB2FB699A72D4
S11345D00AE03D4B1B881BB28033002B00DAFF330B
S11345E01B12DAB2FB699A72384B1A78FB69DA72D9
S11345F0374B02221A60FB690E33BB613B687B6157
S11346007B691A68BB691A60BB6904337A695268AA
S11346101A60BB6908337A6992681A60BB690C3303
S11346207A69D2681A60BB6910337A6912691A60B0
S1134630BB6914337A6952691A60BB6918337A69A1
S113464092691A60BB691C337A69D2691A60BB69C2
S113465020337A69126A1A60BB6924337A69526A10
S11346601A60BB6928337A69926A1A60BB692C3371
S11346707A69D26A1A60FB690E333B613B68FB605E
S11346803B693033FA68128E1A80064B1B78DAB213
S1134690FB695A70034B00221A7001231846203715
S11346A0BD4680BD480A0010E40B001008400040DD
S11346B028100010C80B001088090010B80B001057
S11346C0040B00107C090010A0090010490A001016
S11346D038C0092080B58AB000AF0346B9607A605B
S11346E0FB7304F0D7F878627B6A002B09D13C4B4A
S11346F01B78DBB243F00403DAB2394B1A7000239F
S113470069E07B6A0022DA707B6A7A685A60354B0A
S11347101B889BB2DBB2623BDAB27B6A9A707B6A1B
S113472000229A727B6A0022DA722F4B02221A60EC
S11347307B6A0E333B62BB68FB61FB691A683B6AA8
S11347401A603B6A0433FA6952681A603B6A083398
S1134750FA6992681A603B6A0C33FA69D2681A6083
S11347603B6A1033FA6912691A603B6A1433FA69B6
S113477052691A603B6A1833FA6992691A603B6A93
S11347801C33FA69D2691A603B6A2033FA69126AE7
S11347901A603B6A2433FA69526A1A603B6A283306
S11347A0FA69926A1A603B6A2C33FA69D26A1A600F
S11347B07B6A0E33BB61BB687B61BB6930337A694A
S11347C0128E1A80064B1B78DAB27B6A5A70044B3D
S11347D000221A70012318462837BD4680BD00BF49
S11347E0480A00109C04001038C0092080B582B02B
S11347F000AF174B1B78002B1DD0164B1B785BB2F8
S1134800002B18DD144B1B889BB2A3F66213134ACA
S113481032F813301BB28033002B00DAFF331B1243
S1134820BB71BA790B4B1B78DBB21344DBB2363B5A
S1134830DBB2FB7102E0074B1B78FB7197F9073081
S113484018460321FFF71EFE0837BD4680BD00BF92
S11348507C0900104C0400109C040010A0090010F6
S113486080B400AF094B00221A70094B4FF40012B8
S11348701A60084B04221A60074A074B1B6843F06E
S113488004031360BD465DF8047B7047B01000104C
S113489000E100E0AC800240B480024080B400AF8C
S11348A0094A094B1B6823F004031360074B0422D5
S11348B01A60074B4FF400121A60064B00221A705C
S11348C0BD465DF8047B7047B4800240AC80024072
S11348D080E100E0B01000102DE9F04F95B000AF7A
S11348E0B9607A603B600346FB7300237B64FB7B07
S11348F03C2B00F2518501A252F823F0F14900004B
S1134900FB490000995300000B4A00002D4A0000A7
S1134910494A00006B4A0000874A0000A94A000087
S1134920C94A0000EB4A00008F4D0000B54D00005D
S1134930614B00006B4B00000B4B0000494C000026
S1134940694C0000A14C0000C14C0000DD4C00008B
S1134950694D0000714D0000834D00003F4E000082
S11349605D4E000099530000694E0000E54C0000C4
S1134970014D0000294D0000214D0000314D000083
S11349802D4F0000C54E0000A14F0000AF4F0000A6
S1134990BF4F0000D14F00009D500000E3500000C5
S11349A071510000A5510000C75100001F520000C2
S11349B09D530000515200006752000083520000D2
S11349C099520000C55200001551000047510000E3
S11349D0E1520000255300006F4F000037530000E0
S11349E0995300000F5300007B53000087530000CD
S11349F03B6800221A6000F0D2BCA14B01221A705D
S1134A003B6800221A6000F0CABC9E4B1B6803F08E
S1134A100203002B14BF01230023DBB21A467B6878
S1134A201A703B6801221A6000F0B9BCBB681B888D
S1134A30002B04D0944B02221A6000F0B0BC934BBC
S1134A4002221A6000F0ABBC8E4B1B6803F010030B
S1134A50002B14BF01230023DBB21A467B681A70B3
S1134A603B6801221A6000F09ABCBB681B88002BCB
S1134A7004D0854B10221A6000F091BC834B1022A5
S1134A801A6000F08CBC7F4B1B6803F48073002B0E
S1134A9014BF01230023DBB21A467B681A703B68FB
S1134AA001221A6000F07BBCBB681B88002B05D078
S1134AB0754B4FF480721A6000F071BC734B4FF465
S1134AC080721A6000F06BBC6E4B1B6803F40073B9
S1134AD0002B14BF01230023DBB21A467B681A7033
S1134AE03B6801221A6000F05ABCBB681B88002B8B
S1134AF005D0654B4FF400721A6000F050BC634B54
S1134B004FF400721A6000F04ABC36237B62604B9B
S1134B101B6807F1240107F1100208461146984763
S1134B203B69DAB27B681A707B6801337A69D2B266
S1134B301A707B6802337A69120AD2B21A707B68DF
S1134B4003337A69120CD2B21A707B6804337A691F
S1134B50120ED2B21A703B6805221A6000F01FBC14
S1134B60474B0B221A7000F01ABC3A237B62484B65
S1134B701B6807F1240107F1100208461146984703
S1134B803B69DAB27B681A707B6801337A69D2B206
S1134B901A707B6802337A69120AD2B21A707B687F
S1134BA003337A69120CD2B21A707B6804337A69BF
S1134BB0120ED2B21A707B680533BA69D2B21A7077
S1134BC07B680633BA69120AD2B21A707B6807335B
S1134BD0BA69120CD2B21A707B680833BA69120E21
S1134BE0D2B21A707B680933FA69D2B21A707B6840
S1134BF00A33FA69120AD2B21A707B680B33FA6963
S1134C00120CD2B21A707B680C33FA69120ED2B24B
S1134C101A707B680D333A6AD2B21A707B680E330D
S1134C203A6A120AD2B21A707B680F333A6A120CCB
S1134C30D2B21A707B6810333A6A120ED2B21A706A
S1134C403B6811221A60AAE3124B1B6803F080032D
S1134C50002B14BF01230023DBB21A467B681A70B1
S1134C603B6801221A609AE3BB681B88002B03D0BF
S1134C70094B80221A6092E3084B80221A608EE36B
S1134C803F0A001034C0092038C009203CC0092064
S1134C904804001054C0092058C009205CC00920F1
S1134CA0924B1B6803F48073002B14BF0123002371
S1134CB0DBB21A467B681A703B6801221A606EE305
S1134CC0BB681B88002B04D0894B4FF480721A6098
S1134CD065E3884B4FF480721A6060E3864B0322CD
S1134CE01A705CE3052005F029F80346DBB203F0F3
S1134CF00703DAB27B681A703B6801221A604EE33C
S1134D00BB681B88072B09D8BB681B8843F00803C2
S1134D109BB20520194605F027F840E300233FE342
S1134D20754B05221A703AE3734B06221A7036E368
S1134D30724B1A787B681A707B6801336F4A527819
S1134D401A707B6802336D4A92781A707B68033359
S1134D506A4AD2781A707B680433684A12791A70E6
S1134D603B6805221A601AE3634B00221A7016E3AB
S1134D70634B1B78DAB27B681A703B6801221A60B5
S1134D800DE3BB681B88DAB25D4B1A7007E35D4B19
S1134D901B889BB2DAB27B681A707B680133594A6C
S1134DA0128892B2120A92B2D2B21A703B680222EC
S1134DB01A60F4E2BB681A88534B1A80524B1B8862
S1134DC09BB240F6EA22934207D9504B01221A7053
S1134DD04D4B40F662121A8020E04C4B00221A70B0
S1134DE0494B1B889BB240F6DC02934203D9464BE5
S1134DF01B889BB201E040F6DC03434A1380424B1C
S1134E001B889BB240F6E922934203D83E4B1B8891
S1134E109BB201E040F6EA233B4A13803C4B1B78EB
S1134E20DBB2092B0AD0384B1B889AB2354B1A8057
S1134E30354B00221A80FFF7D9FCB0E2AFE23923E8
S1134E407B62344B1B6807F1240107F1100208460A
S1134E50114698473B6800221A60A0E22E4B2F4A65
S1134E601A6005F04DF99AE2BB681B88B3F5006F30
S1134E7017D9BB681B88B3F5406F12D8BB680233DF
S1134E801B88B3F5006F0CD9BB6802331B88B3F5DC
S1134E90406F06D8BB6802331A88BB681B889A42E5
S1134EA001D200237CE2BB681A881D4B1A80BB68C0
S1134EB05A881C4B1A80104B04221A703B6800223B
S1134EC01A606CE2BB681B88B3F5807F01D90023AC
S1134ED066E2BB681B88DAB2134B1A70064B0722D2
S1134EE01A703B6800221A6059E200BF54C00920BE
S1134EF058C009205CC009203F0A0010701000103F
S1134F00420A00109C040010440A00107C0900109E
S1134F103E0A0010480400101C00001021BB054389
S1134F209E040010A0040010A20400107B6800225C
S1134F301A707B68013300221A70A44806F074F9D1
S1134F40034687F843307B68023397F843201A708E
S1134F507B68DA1C97F8433010469C491A4606F0E1
S1134F60EDF897F84330DA1C3B681A6017E298486A
S1134F7006F05AF9034687F843307B6897F84320D4
S1134F801A707B685A1C97F84330104690491A46A9
S1134F9006F0D4F897F843305A1C3B681A60FEE1D7
S1134FA07B6801221A703B6801221A60F7E1BB6832
S1134FB01B88DAB2874B1A70FFF718FCEFE1854BB8
S1134FC01B78DAB27B681A703B6801221A60E6E14A
S1134FD081494FF000024FF00003C1E900237E49EC
S1134FE04FF000024FF00003C1E902230023FB64E9
S1134FF025E0794BD3E900ABFB6C7A6813441B784A
S1135000DAB24FF00003F96CC900A1F12006C1F136
S1135010200003FA01F902FA06F649EA060922FA1F
S113502000F049EA000902FA01F84AEA08024BEAE8
S113503009036949C1E90023FB6C0133FB64FB6C80
S1135040072BD6DD0023FB6424E0634BD3E90289FC
S1135050FB6C08337A6813441B78DAB24FF0000310
S1135060F96CC900A1F12006C1F1200003FA01F591
S113507002FA06F6354322FA00F0054302FA01F477
S113508048EA040249EA05035349C1E90223FB6CD7
S11350900133FB64FB6C072BD7DD80E10023BB6489
S11350A00023FB640DE0BB6C1B02BB64FB6C7A68E1
S11350B013441B781A46BB6C1343BB64FB6C01336B
S11350C0FB64FB6C032BEEDD444B1A68BB6C13448E
S11350D0424A1360424B02221A70424B08221A7051
S11350E05DE17B681B781A467B6801331B781B02E1
S11350F01A437B6802331B781B041A437B6803330F
S11351001B781B061343FB63344AFB6B1360FFF7E6
S11351106DFB44E10023FB640BE0FB6C7A681344F1
S11351201978314AFB6C13440A461A70FB6C01333C
S1135130FB64FB6C092BF0DD2C4B01221A703B68DD
S11351400A221A602BE10023FB6407E0264AFB6C69
S1135150134400221A70FB6C0133FB64FB6C092BB3
S1135160F4DD224B00221A703B680A221A6016E111
S11351701A4B1B68FB630023FB640CE0FB6C7A682E
S11351801344FA6CD200F96B21FA02F2D2B21A700B
S1135190FB6C0133FB64FB6C032BEFDD3B680422E7
S11351A01A60FCE03B6800221A60114B00221A705E
S11351B00B4B03221A700B4B09221A7003F05AFB93
S11351C0FFF714FBEBE00023FB6421E048BB000085
S11351D008BB00004C040010B8100010E40B0010D1
S11351E07C0900103F0A0010BC0B001024100010B2
S11351F07D090010FB6C7A6813446C4A1168FA6CE0
S1135200D20021FA02F2D2B21A70FB6C0133FB64B1
S1135210FB6C032BEEDD3B6804221A60BFE07B6865
S11352201B781A467B6801331B781B021A437B6880
S113523002331B781B041A437B6803331B781B0659
S11352401343184601F0F8F8584B0122DA63A6E03C
S11352507B6813221A707B68013337221A703B680B
S113526002221A609BE0514B1B69002B14BF0123DF
S11352700023DBB21A467B681A703B6801221A606D
S11352808DE0BB681B88002B14BF01230023DBB215
S11352901A46464B1A6182E003F02CFB78647B6C5F
S11352A0002B08D07868796C402205F047FF3B68F2
S11352B040221A6073E07B6800221A703B68012266
S11352C01A606CE03B6800221A60394B00221A70A5
S11352D0384B0A221A7003F0CDFAFFF787FA5EE022
S11352E0BB681B88DBB2184604F028FD03467B87A5
S11352F07B8F1B0A9BB2DAB27B681A707B6801331E
S11353007A8FD2B21A703B6802221A6047E0BB68F7
S11353101B88DAB2BB6802331B881046194604F0B6
S113532023FD3CE024487968062205F007FF214B61
S11353300C221A7033E07B685A791C4B83F83420B2
S11353407B681A79194B83F835207B68DA78174B18
S113535083F836207B689A78144B83F837207B686F
S11353605A78124B83F838207B681A780F4B83F8ED
S113537039200E4B0122DA6311E0BB681B88DAB2D4
S11353800E4B1A700BE00B4B0D221A70BB681B8876
S1135390DAB20B4B1A7002E0002301E000BF0123D4
S11353A018465437BD46BDE8F08F00BF58040010BE
S11353B07C0900103F0A00108C090010400A0010FC
S11353C0410A001080B400AF0C4B02221A600C4B4F
S11353D000221A600B4B04221A600B4B40F6344235
S11353E01A600A4B03221A60094B02221A60034B0B
S11353F001221A60BD465DF8047B704704400040FA
S1135400E40B00100C4000401840004014400040E1
S113541000E100E080B483B000AF4FF040231B688C
S113542003F00103002B6DD0394B1B680133384A5C
S11354301360374B1B687B60364B9B697A68D31AC1
S113544003F003033B60344B1B78002B03D0324B37
S11354501B78012B09D17B6803F07F03002B03D158
S11354602E4B01221A7037E036E02B4B1B78022BAF
S113547008D17B6803F00103002B2DD1274B0122B7
S11354801A7029E0244B1B78032B25D1214B1B7D5B
S1135490032B21D13B68002B1ED11E4B9B8B9BB24F
S11354A0013B9AB21B4B9A831A4B9B8B9BB2002BEA
S11354B00ED11A4B01221A70164B1B8C9BB201336E
S11354C09AB2144B1A84134BDA8B124B9A8303E06F
S11354D0134B4FF480721A607B68C3F30803002BEC
S11354E002D1104B01221A700F4A104B1B68C3F5EE
S11354F04363043313600D4B00221A604FF04023C2
S113550001221A600C37BD465DF8047B704700BF6A
S1135510E40B0010580400107C0900107D090010F1
S11355203CC00920E00B0010184000408409001022
S113553080B400AF0B4B04221A600B4B01221A708B
S11355400A4B1B68C3F3130340F6354202FB03F214
S1135550074B1B681344074A1360BD465DF8047B80
S1135560704700BFAC800240B0100010E40B001084
S113557008400040DC0B001080B485B000AF7860B8
S11355807B6840F6354202FB03F3094AA2FB03237E
S11355909A09084B1B681344FB60064B1A68FB68A6
S11355A09A42FAD31437BD465DF8047B704700BFB6
S11355B0D34D6210E40B001080B400AF3F4A3F4B60
S11355C01B6843F0005313603D4B00221A603D4BAF
S11355D000221A603C4B00221A603C4B00221A60E5
S11355E03B4B00221A603B4B00221A603A4B0022CC
S11355F01A603A4B00221A60394BFF221A60394B69
S1135600FF221A60384B394A1A60394A364B5A60BD
S1135610384A354B9A60344B374ADA60354B334A53
S11356201A60364A334B5A602F4A324B9A60314BD8
S1135630314ADA60324B4FF080621A60314B0122FA
S11356401A6000BF2F4B1B6803F00103002BF9D035
S11356502D4A254B1B6813602C4A234B5B6813604F
S11356602B4A214B9B6813602A4A1F4BDB6813604B
S1135670134B4DF206021A60274B1B681B0DDBB25D
S1135680264A1360244B1B68C3F3130340F63542C8
S113569002FB03F2224B1B681344224A1360224B81
S11356A01B889AB2214B1A80214B00221A60214B8D
S11356B000221A60BD465DF8047B7047C4C00F40E9
S11356C01041005030410050504100507041005092
S11356D090410050B0410050D0410050F041005082
S11356E008400050104000506010001008000340B3
S11356F078100010CC0B0010329000882C10001091
S113570080E100E03040005000410050044100506E
S1135710084100500C410050E40B0010E80B00104D
S113572008400040201000109C0400108A0900105A
S1135730000B0010AC10001080B483B000AF4B4AD3
S11357404A4B1B6843F000531360494B00221A6014
S1135750484B00221A60484B00221A60474B002233
S11357601A60474B00221A60464B00221A60464BCF
S113577000221A60454B00221A60454BFF221A6032
S1135780444BFF221A60444B01221A6000BF424B73
S11357901B6803F00103002BF9D000237B602AE08F
S11357A03E4A7B681B0113443D4A1A607B689B0098
S11357B03C4A13441946394A7B681B011344596017
S11357C07B68092B06DC7B6801331B01334A1344D5
S11357D01A4600E0002231497B681B010B44083360
S11357E01A602E4A7B681B01134408332E4A5A6000
S11357F07B6801337B607B680A2BD1DD2B4A274B06
S11358001B6813602A4A254B5B681360294A234BA3
S11358109B681360284A214BDB681360144B4DF2DC
S113582006021A60254B1B681B0DDBB2244A136069
S1135830224B1B68C3F3130340F6354202FB03F209
S1135840204B1B681344204A1360204B1B889AB2D8
S11358501F4B1A801F4B00221A601F4B00221A6034
S11358600C37BD465DF8047B704700BFC4C00F40D1
S113587010410050304100505041005070410050E0
S113588090410050B0410050D0410050F0410050D0
S1135890084000501040005030400050080B0010E9
S11358A008000340781000100410008800410050E4
S11358B004410050084100500C410050E40B00101A
S11358C0E80B001008400040201000109C04001059
S11358D08A090010000B0010AC10001080B400AF57
S11358E0254B1B68254A1360254B1B681B0DDBB237
S11358F0214A1360234B1B68234A1360204B1B6807
S1135900C3F3130340F6354202FB03F21F4B1B683B
S113591013441C4A13601E4B1B889AB21D4B1A80F9
S11359201D4B1B889AB21A4B1A801C4B1B6803F040
S11359300103002B1BD01A4B1B6803F00103002B3F
S113594007D0184B01221A60174B1B680133164A03
S11359501360164B1B6803F00103002B07D0144B94
S113596001221A60134B1B680133124A1360BD46AF
S11359705DF8047B704700BFE80B0010281000108E
S1135980E40B001020100010C80B00100840004069
S11359908A090010880900109C040010004000507F
S11359A00440005008400050000B00100C40005010
S11359B010400050AC10001080B500AF124B1B78A3
S11359C0DBB2013B0B2B1ED801A252F823F000BF1F
S11359D0015A0000075A0000075A0000015A00004B
S11359E0075A0000075A0000075A0000015A000035
S11359F0015A0000015A0000075A0000015A000031
S1135A00FFF76CFF00BF80BD3E0A001080B400AFFA
S1135A10104B4FF080521A600F4A0F4B1B6843F033
S1135A20010313600D4A0D4B1B6843F0020313601E
S1135A300B4A0B4B1B6843F001031360094B4FF0F7
S1135A4080621A60084B4FF080521A60BD465DF8C0
S1135A50047B704798C009202400034004000340DD
S1135A601041005000E100E09CC0092080B400AF68
S1135A70214B4FF080521A60204A204B1B6823F0C0
S1135A80010313601E4A1E4B1B6823F002031360BC
S1135A901C4B4FF080621A601B4B00221A601B4B98
S1135AA000221A601A4B00221A601A4B00221A6054
S1135AB0194B00221A60194B00221A60184B00225D
S1135AC01A60184B00221A60174BFF221A60174BFA
S1135AD0FF221A60164A164B1B6823F00103136059
S1135AE000BF134B1B6803F00103002BF9D1BD4623
S1135AF05DF8047B704700BF98C009202400034070
S1135B000400034080E100E01041005030410050A7
S1135B10504100507041005090410050B04100503D
S1135B20D0410050F0410050084000501040005057
S1135B303040005080B500AF642004F0D7F900BFB6
S1135B4004F0CAF9034603F00403002BF8D10A4B0E
S1135B5080221A60084B4FF480721A60074B10229F
S1135B601A60064B4FF480721A60044B02221A60CA
S1135B70034B00221A7080BD5CC009203CC0092080
S1135B803E0A001080B582B000AF2A4B1B78DBB20E
S1135B90002B02D12923FB8008E0264B1B78DBB2C3
S1135BA0012B02D14023FB8000E040E00D2047F6AA
S1135BB0FF7104F0D9F8122042F6223104F0D4F82F
S1135BC0142041F24B3104F0CFF8202040F20111AF
S1135BD004F0CAF8184B1B889BB2013B9BB202200D
S1135BE0194604F0C1F8FB880320194604F0BCF8F8
S1135BF0FEF7FCFD00BF04F06FF9034603F0400319
S1135C00002BF8D0612004F071F900BF04F064F9AE
S1135C10034603F00403002BF8D0622004F066F975
S1135C20064B80221A60054B4FF480721A600837C5
S1135C30BD4680BD420A00109C04001058C00920D3
S1135C4080B584B000AF7860334B1B78DBB2002B97
S1135C5005D12923BB8140F26143FB810BE02E4B2C
S1135C601B78DBB2012B05D14023BB8140F2615389
S1135C70FB8100E04DE00D2047F6FF7104F074F85D
S1135C80122042F6223104F06FF8142041F24B2125
S1135C9004F06AF8FB892020194604F065F87B6853
S1135CA09BB22C20194604F05FF87B681B0C9BB256
S1135CB02D20194604F058F8184B1B889BB2013B61
S1135CC09BB20220194604F04FF8BB890320194601
S1135CD004F04AF8FEF78AFD00BF04F0FDF803461D
S1135CE003F04003002BF8D0612004F0FFF800BF5C
S1135CF004F0F2F8034603F00403002BF8D062200A
S1135D0004F0F4F8064B80221A60054B4FF48072BD
S1135D101A601037BD4680BD420A00109C04001072
S1135D2058C0092080B59AB000AFF8600B467A607D
S1135D30FB7200237B6635E0FB6887F85E30FB6806
S1135D401B0AFB6007F110027B6E134400221A70D9
S1135D5000233B6620E007F110027B6E13441B789E
S1135D60D9B297F85E3003F001033A6EC2F107022C
S1135D709340DBB20A461343DBB2D9B207F11002F7
S1135D807B6E13440A461A7097F85E305B0887F8F6
S1135D905E303B6E01333B663B6E072BDBD97B6E7B
S1135DA001337B667B6E032BC6D9934B1B889BB256
S1135DB0DBB2623BDBB2184602F0DCFB03461A4658
S1135DC08E4B9B5CBB6500237B6650E07A687B6EE0
S1135DD013441B7887F85E307B6E043307F1680246
S1135DE01344002203F8582C00233B6639E097F84B
S1135DF05E3003F001038249BA6D0A4412785340BD
S1135E007B65BB6D013319467E4BA1FB0323C81A86
S1135E10400803449A091346DB019B1ACA1ABA655F
S1135E2097F85E305B0887F85E307B6E04337A6ED9
S1135E30043207F168010A4412F8582CD1B23A6EC0
S1135E40C2F1070210467A6D8240D2B20A43D2B23E
S1135E50D2B207F168010B4403F8582C3B6E0133AE
S1135E603B663B6E072BC2D97B6E01337B66FA7AA5
S1135E707B6E9A42AAD8FB7A0433FB720D2047F654
S1135E80FF7103F071FF122042F6223103F06CFF20
S1135E90142041F24B3103F067FF202040F601410A
S1135EA003F062FF544B1B889BB20220194603F097
S1135EB05BFF05200B2103F057FF0320402103F073
S1135EC053FF2320142103F04FFFFB6803F0010369
S1135ED0002B05D02D204AF6AA2103F045FF04E04B
S1135EE02D2045F2555103F03FFF082003F026FF13
S1135EF00346A7F85230B7F85230C3F308039BB2F5
S1135F0043F49C439BB29BB20820194603F02CFF38
S1135F1000BF03F0E1FF034603F04003002BF8D079
S1135F20612003F0E3FF00BF03F0D6FF034603F054
S1135F300403002BF8D0344B4FF480721A60334BB7
S1135F4080221A6000BF0E2003F0F8FE034603F01F
S1135F501F030F2BF7D1632003F0C8FF00237B66D8
S1135F6021E000BF2A4B1B6803F00403002BF9D186
S1135F707B6EDBB2FA7AD31A87F85F3097F85F301A
S1135F80102B02D9102387F85F3007F110027B6EC3
S1135F90134497F85F20702011461A4603F026FF39
S1135FA07B6E10337B66FA7A7B6E9A42D9D800BF37
S1135FB00E2003F0C3FE034603F01F030F2BF7D19B
S1135FC0144B4FF480721A60642003F08FFF00BFFB
S1135FD003F082FF034603F00403002BF8D10E4BB9
S1135FE080221A60B7F852300820194603F0BCFE2C
S1135FF06837BD4680BD00BF9C04001038B3000064
S1136000B8B200001108040238C0092058C00920A1
S113601054C009203CC009205CC0092080B500AFF1
S11360200D2047F6FF7103F09FFE122042F6223145
S113603003F09AFE142042F24B3103F095FE202027
S113604040F6014103F090FE05200B2103F08CFE85
S11360500320402103F088FE00BF03F03DFF034608
S113606003F04003002BF8D0612003F03FFF00BF92
S113607003F032FF034603F00403002BF8D00A4B6D
S11360804FF480721A60094B80221A6000BF0E2000
S113609003F054FE034603F01F030F2BF7D16320D4
S11360A003F024FF80BD00BF38C0092058C0092078
S11360B080B500AF414B00221A70414B1B78002B76
S11360C00BD1022003F03AFE03461A463D4B1B88CF
S11360D09BB2013B9A4247D16EE0394B1B78012BAE
S11360E014D1384B1B889BB220339AB2354B1A809B
S11360F0344B1B889BB2B3F51B6F35D9314B1B88CE
S11361009BB24F3B9AB22F4B1A802DE02C4B1B783D
S1136110022B0DD12C4B4FF480721A602B4B1B6851
S1136120184602F039F903461A46264B1A801BE03A
S1136130234B1B78032B0BD1234B4FF480721A6033
S1136140234802F0EFF903461A461E4B1A800BE06F
S11361501B4B1B78042B07D11B4B4FF480721A6026
S11361601C4B1A88174B1A80642003F0BFFE00BF33
S113617003F0B2FE034603F00403002BF8D1114BE5
S11361801B889BB2013B9BB20220194603F0ECFD35
S11361900B4B1B78002B01D0FEF728FB612003F08A
S11361A0A5FE00BF03F098FE034603F00403002B92
S11361B0F8D0622003F09AFE80BD00BF7D09001074
S11361C07C0900109C04001038C00920E40B001066
S11361D05804001080090010B0B582B000AF00234D
S11361E03B60834B10221A6002F044FB03F0EAFC8C
S11361F0FFF7E2F9FFF70AFC7E4B1B78DBB2082BB2
S11362000BD101F0E7FE7C4BD3E900231C000025F1
S113621023461846FFF714FD01E0FFF7B3FCFEF731
S11362201FFB0023FB71D0E0744B1B78DBB2002B07
S113623001D0FFF73DFF6E4B10221A60FEF786F87F
S113624080237B7122E0062003F078FD03461B0ABD
S11362509BB2BB716A4B1B78DBB2002B11D097F950
S1136260053013F1800F0CD1664B1B785BB203F140
S1136270360297F906309342B8BF1346BB71BB7917
S11362807B7197F906301846FEF77AF85E4B1B6867
S1136290002B03D15D4B1B68002BD4D05A4B1B68D9
S11362A003F00103002B09D0594B1B683B60594B89
S11362B01B68574A1360574A3B681360534B1B686B
S11362C0002B07D0544B1B78DBB243F00203DAB245
S11362D0514B1A704C4B1B68002B00D16AE04A4B9F
S11362E01B68012B07D94C4B1B78DBB243F001032D
S11362F0DAB2494B1A70FEF779F8414B1B78DBB2DE
S1136300002B03D1454B1B78002B0CD0424B1B7840
S1136310DBB243F00803DAB23F4B1A700223FB717D
S1136320374B00221A703E4B1B785AB2354B1B7800
S11363305BB236339A4209DB374B1B78DBB243F04E
S11363401003DAB2344B1A700223FB71354B1B78FD
S1136350DBB2002B07D0FB79002B01D10123FB71A9
S1136360304B00221A70FB79002B00D122E0FB791C
S1136370013BFB712C4B1B78022B0DD1254B1B6869
S113638000201946FEF7C4F80346002B03D0274B20
S113639010221A600EE00DE01E4B1B680020194607
S11363A0FEF7B6F80346002B03D0204B10221A60E8
S11363B0FFE700BF1E4B1B68184602F0FBFA124BA6
S11363C000221A60114B00221A601A4B1B78DBB2B0
S11363D0012B3FF429AF174B1B78DBB2082B3FF49A
S11363E023AFFFF743FBFEF759FA0837BD46B0BDAC
S11363F03CC009203E0A0010F80C00107D09001072
S1136400B01000104D040010000B0010AC10001070
S11364105004001054040010480A00107E090010B3
S1136420040B0010E00B00107C09001038C0092098
S1136430E40B00103F0A001080B584B000AF786010
S1136440094A7B681360786803F0BCFAF860FB685B
S11364509AB2054BDA80FB681B0C9AB2024B9A8005
S11364601037BD4680BD00BF5804001080B500AF92
S11364701F48FFF7E1FF1F4B1F4A9A601D4B1F4A3D
S1136480DA601C4B01221A611A4B00221A64194B60
S113649000221A75174B00225A75164B00229A7562
S11364A0144B00229A61134B00229A83114B002251
S11364B0DA83104B0022DA830E4B00221A840D4B30
S11364C0002283F822200B4B00229A84094B0022DD
S11364D09A62084B00229A85064B0022DA85054B06
S11364E0002283F83020064B00221A7080BD00BFC2
S11364F0D6BE898E5804001055555500AAAAAA0084
S11365007D09001080B500AF054800214FF4847266
S1136510FDF772FE024B4FF0FF32C3F8002180BD3D
S1136520EC0B001080B588B000AF0346FB7100236C
S1136530FB60A44B01221A70A34AFB791370FFF786
S113654095FFA24B4FF080721A60A14B10221A6083
S113655002F090F903F036FBFFF72EF8FFF756FA36
S1136560FFF710FBFEF77CF90023FB7715E1994B4D
S11365701B889BB2002B24D0642003F0B7FC00BF1F
S113658003F0AAFC034603F00403002BF8D1924B5A
S11365901B889BB2013B9BB20220194603F0E4FB2B
S11365A0612003F0A3FC00BF03F096FC034603F054
S11365B00403002BF8D0622003F098FC854B0022E2
S11365C01A80864B1B78DBB2002B02D0FFF770FDDC
S11365D003E07F4B4FF480721A607D4B10221A60E7
S11365E0FDF7B4FE8023BB7422E0062003F0A6FB73
S11365F003461B0A9BB2FB74794B1B78DBB2002B5E
S113660011D097F9123013F1800F0CD1754B1B7810
S11366105BB203F1360297F913309342B8BF1346C5
S1136620FB74FB7CBB7497F913301846FDF7A8FE86
S11366306D4B1B68002B03D16C4B1B68002BD4D013
S1136640694B1B6803F00103002B09D0684B1B68DE
S1136650FB60684B1B68664A1360664AFB681360FC
S1136660624B1B68002B07D0634B1B78DBB243F0F3
S11366700203DAB2604B1A705B4B1B68002B00D12B
S113668085E0594B1B68012B07D95B4B1B78DBB2A8
S113669043F00103DAB2584B1A70FDF7A7FE504BD2
S11366A01B78DBB2002B03D1544B1B78002B0CD08E
S11366B0514B1B78DBB243F00803DAB24E4B1A702D
S11366C00223FB77464B00221A704D4B1B785AB2BB
S11366D0444B1B785BB236339A4209DB464B1B783A
S11366E0DBB243F01003DAB2434B1A700223FB7798
S11366F0444B1B78DBB2002B07D0FB7F002B01D16E
S11367000123FB773F4B00221A70FB7F002B00D143
S11367103DE0FB7F013BFB773B483C494FF4C872AB
S113672004F00CFD0023BB6125E000237B611CE029
S1136730BB693233DA007B6913442E4A1168BA69A3
S11367400A441278D209D1B22F4AD154294B1A687B
S1136750BB691344274A1168BA690A441278520083
S1136760D2B21A707B6901337B617B69072BDFDD51
S1136770BB690133BB61BB69312BD6DD244B1B687C
S113678021489847B860BB68002B00D10CE0164B39
S113679000221A60154B00221A601E4B1B78DBB2D4
S11367A0FA799A423FF4E3AE1B4B4FF080721A60C1
S11367B0FFF7C0F9FFF75AF9FEF770F82037BD4626
S11367C080BD00BF420A00103E0A001000E100E054
S11367D03CC00920440A00109C0400107D090010EC
S11367E0B01000104D040010000B0010AC1000108D
S11367F05004001054040010480A00107E090010D0
S1136800040B0010E00B0010000D0010900E00109F
S1136810980900103F0A001080E100E090B59BB099
S113682000AF0346FB71874B01221A70864AFB793D
S11368301370864B01221A75854B4FF080721A60D3
S1136840844B10221A6002F015F803F0BBF9FEF72E
S113685073FFFFF7DBF87D4B1B68184603F0B2F8B3
S113686003461846FFF7ECF947E27B4B1B889BB2C3
S1136870002B29D0642003F039FB00BF03F02CFB6C
S1136880034603F00403002BF8D1744B1B889BB21E
S1136890013B9BB20220194603F066FA612003F023
S11368A025FB00BF03F018FB034603F00403002B91
S11368B0F8D0622003F01AFB674B1B889AB2684B2E
S11368C01A80654B00221A80624B10221A60FDF771
S11368D03DFD00BF634B1B68002B0ED1624B1B6850
S11368E0002B0AD1614B1B78DBB2002B05D1604B26
S11368F01B78DBB2FA799A42ECD05D4B1B78DBB2A1
S1136900FA799A4200D0FFE1574B1B68002B07D05D
S1136910584B1B78DBB243F00203DAB2554B1A70C2
S1136920524B1B78DBB2002B00D02BE14D4B1B6884
S1136930002B00D1E1E107F10803FB65434B1B6821
S1136940BB60464B1B889BB2DBB2623BDBB2184692
S113695001F010FE03461A4613465B0013441B0164
S1136960454A1344BB6500237B6634E0434A7B6E8F
S113697013441B781A067B6E01334049CB5C1B041D
S11369801A437B6E02333D49CB5C1B0213437A6E80
S113699003323A498A5C13437B657B6E002B00DA31
S11369A003339B105C1C786D03F00CF801467B6E7E
S11369B0002B00DA03339B109B00BA6D13441B6851
S11369C081EA0302A30007F168010B4443F8602C39
S11369D07B6E04337B667B6E032BC7DDFB6D053357
S11369E01B7803F03F0302333B653B6D272B00D933
S11369F0C8E03B6D06339B08FB64FB6C0A2B0DD887
S1136A0000BF1F4B1A68FB6C9B001C490B449A4245
S1136A100FD2154B1B68002BF3D00AE000BF194BB3
S1136A201B6803F00103002B03D00F4B1B68002BE2
S1136A30F5D0154A144B1B6823F00103136004239B
S1136A407B6658E0420A00103E0A00105804001009
S1136A5000E100E03CC00920440A00109C0400103E
S1136A60460A0010000B0010AC1000107D09001045
S1136A703F0A0010480A001088B300007810001084
S1136A80044100501041005024000340A54A7B6E8D
S1136A9013441B781A067B6E0133A249CB5C1B049A
S1136AA01A437B6E02339F49CB5C1B0213437A6EFD
S1136AB003329C498A5C1343BB647B6E002B00DA6F
S1136AC003339B105C1CB86C02F07CFF01467B6EA8
S1136AD0002B00DA03339B109B00BA6D13441B6830
S1136AE081EA0302A30007F168010B4443F8602C18
S1136AF07B6E04337B667B6E2B2BC7DD8A4B1B6955
S1136B00002B23D0884BD968FB6D1A1D3B6D0846BA
S1136B1011461A4601F032FE78643B6D0633FA6D75
S1136B2013441B781A043B6D0533F96D0B441B7831
S1136B301B0213433A6D0432F96D0A44127813436D
S1136B403B647A6C3B6C9A4200D01BE0774B10227A
S1136B501A60774B1B6807F108021046984707F143
S1136B60080301201946FDF7D3FC724B1B68C3F3DD
S1136B70130340F6354202FB03F26F4B1B681344C8
S1136B80694A1364612003F0B1F900BF03F0A4F96A
S1136B90034603F00403002BF8D0684A674B1B68D4
S1136BA023F00103136003E0654B1B6887F83F3053
S1136BB0644B1B6803F00403002BF5D15D4B1B6889
S1136BC0C3F3130340F6354202FB03F25A4B1B682E
S1136BD013443B66544B1A6C3B6E9A4205D93B6E88
S1136BE003F1434303F5A0033B664F4B1B7D032B8B
S1136BF003D04D4B1B7D022B06D14B4B1B6C3A6EC5
S1136C00D31A514A934203D8504B1B68012B37D1F6
S1136C10FFF72CFC4D4B00221A604D4B4FF4807251
S1136C201A604C4B1B78DBB2012B06D1494B002276
S1136C301A70494B00221A7066E0FB790A2B01D1C5
S1136C4000BF61E0384B01221A75642003F04EF94D
S1136C5000BF03F041F9034603F00403002BF8D10D
S1136C603E4B1B889BB2002B03D03C4B1B889BB232
S1136C7001E040F662133A4A13803A4B01221A604B
S1136C80294BDB882C20194603F06EF8264B9B8891
S1136C902D20194603F068F8334B1B78DBB2002B28
S1136CA001D0FFF705FA294B1B68002B07DDFFF71E
S1136CB0B5F9264B1B68013B244A136017E0FEF725
S1136CC03BFDFEF7A3FE274B1B68002B0CD0164B95
S1136CD01B68184602F076FE03461846FEF7B0FF1E
S1136CE0204B00221A6002E0622003F0FFF81F4BE1
S1136CF000221A601E4B00221A60174B1B78DBB26D
S1136D00FA799A423FF4B1AD1A4B4FF080721A608F
S1136D10FEF710FFFEF7AAFEFDF7C0FD6C37BD4677
S1136D2090BD00BF781000105804001038C009202E
S1136D309C090010E40B00100840004024000340AC
S1136D40080003400C00034080F0FA02940900108C
S1136D503CC00920400A00103F0A0010460A0010F7
S1136D609C040010500A00107D090010000B001054
S1136D70AC10001080E100E080B58CB000AF6C4B2B
S1136D801B889BB2DBB2623BDBB2184601F0F2FB1C
S1136D9003461A46674B9B5C3B620023FB6100235E
S1136DA0FB620EE0FB695B08FB61634AFB6A134408
S1136DB01B78DB071A46FB691343FB61FB6A01334B
S1136DC0FB62FB6A1E2BEDDD1F23FB62A6E0FB6961
S1136DD05B08FB61584AFB6A13441B78DB071A46BD
S1136DE0FB691343FB61554B1A68FB699A4240F0F7
S1136DF092800023BB6248E00023FB7600237B6281
S1136E0037E0BB6ADA007B6A1A44FB6A13441F3B0F
S1136E103B613B69B3F5487F00DB2DE0464A3B69A3
S1136E2013441B787B61BB6A032B16DD444A3B6A1F
S1136E3013441B781A467B6953407B613B6A0133D8
S1136E401946404BA1FB0323C81A400803449A097E
S1136E501346DB019B1ACA1A3A627A697B6A02FA00
S1136E6003F3DAB2FB7E1343DBB2FB767B6A0133B6
S1136E707B627B6A072BC4DD334B1A68BB6A1344FD
S1136E80FA7E1A70BB6A0133BB62BB6A2D2BB3DD79
S1136E902A4B1B69002B2ED02B4B1B6805331B7808
S1136EA003F03F030233FB60244BDA68264B1B6874
S1136EB0043310461946FA6801F060FCB860224BAE
S1136EC01A68FB68063313441B781A041E4B1968AE
S1136ED0FB6805330B441B781B0213431A4A1268E0
S1136EE0F96804310A44127813437B60BA687B68FA
S1136EF09A4200D017E0144B1B6801201946FDF795
S1136F0007FB124B10221A60114B1B680E4A1268C1
S1136F101046984707E0FB6A0133FB62FB6AB3F54E
S1136F20D87FFFF654AF012318463037BD4680BDE5
S1136F309C04001038B30000000D00105804001029
S1136F40B8B20000110804025404001038C009202B
S1136F509C09001080B58AB000AF786000233B62C2
S1136F607B68FB617B681B79FB767B6805337B61FF
S1136F707B6806333B617B691B7806331A467B6862
S1136F801344FB608B4B1B7D022B1CD1894B0322CA
S1136F901A75894B1B68874A9361864BDB8B013BCF
S1136FA09AB2844B9A83834B00221A84814B002229
S1136FB09A62824B1B78DBB2002B00F0F780804B87
S1136FC028221A60F2E07B4B1B7D032B6FD1FB7EE2
S1136FD003F00303FB72774B9B6A002B21D0754BA4
S1136FE01B8C9AB2734B9B8D9A421AD1724B1B68BD
S1136FF0704A93616F4BDA8D6E4BDA836D4BDB8D88
S1137000013B9AB26B4B9A836A4B93F83020694BDD
S113701083F82220674B5A8E664B9A84654B002274
S11370209A62FB7A032B41D13B691B78002B3DD13B
S11370307B68DA795F4B83F830207B6808331B78F0
S11370409AB27B6809331B789BB21B029BB2134430
S11370509AB2584B5A867B680A331B789AB27B687B
S11370600B331B789BB21B029BB213449AB2514B55
S1137070DA857B6810331B789AB27B6811331B78EE
S11370809BB21B029BB213449AB24A4B9A85494B5A
S11370909B8D1A46474B1B8C9BB2D31A47F6FE7244
S11370A0934203DC434B01229A627FE07EE0414B32
S11370B01B7D012B7AD17B6804331B7803F00F030B
S11370C0BB72BB7A052B71D13A4BDB6B002B14D00E
S11370D07B6806333B481946062203F0FDFF03464E
S11370E0002B0AD07B680C3336481946062203F07D
S11370F0F3FF0346002B00D058E02E4B02221A75F2
S11371002C4B00221A6100237B6211E07B6A12334C
S11371101A467B6813441B781A467B6ADB0002FA22
S113712003F31A463B6A13433B627B6A01337B6277
S11371307B6A032BEADD386AFFF77EF97B68183334
S11371401B781A047B6817331B781B0213437A6875
S11371501632127813431A46164B9A60154B9B68E5
S1137160184602F02FFC0246124BDA607B685A7E06
S1137170104B83F822207B681A331B789AB20D4B8C
S11371809A847B681C331B789AB20A4BDA837B6837
S113719027331B7803F01F03DAB2064B9A75054BAD
S11371A09A7D044B5A75084B01221A702837BD4644
S11371B080BD00BF58040010E40B0010400A00100A
S11371C0940900108C0400107D09001080B500AFF4
S11371D0FFF74CF9044B054A1A600920FFF71EFB20
S11371E0034B00221A7080BD9C090010556F0000EB
S11371F03E0A001080B592B000AF0346B9607A60D1
S1137200FB7307F1140300221A60043300221A608E
S1137210043300221A60043300221A60043300226B
S11372201A60043300221A60043300221A60043303
S113723000221A60043300221A60043300221A6008
S1137240043300221A60043300221A60043300223B
S11372501A8002337B68312B01D931237B60FB7B9D
S11372603B7507F1140301331846B9687A6803F0D3
S113727065FF07F1140305201946FDF749F948375E
S1137280BD4680BD80B584B000AF7860554B1B8887
S11372909BB240F66412934214D1534B1B68C3F360
S11372A0130340F6354202FB03F2504B1B681344B0
S11372B04F4A13604F4B40F666121A804E4B012220
S11372C01A708BE0474B1B889BB240F666129342C0
S11372D07DD1454B1B68C3F3130340F6354202FBD3
S11372E003F2424B1B681344FB60414B1B68FA6872
S11372F09A4205D2FB6803F1434303F5A003FB6004
S11373003B4B1B68FA68D21A3C4BDB8B194643F2A1
S1137310D40303FB01F3D90F0B445B101344374A26
S1137320D28B114643F2D40202FB01F2B3FBF2F317
S1137330BB60BB68242B42D8314ABB6813441A781B
S11373402E4B9A752D4BDB8B5B089AB22B4B9A8391
S11373502A4B00221A84294B00229A61264B0022D0
S11373601A70264B9B7D5A1C264B82FB0301531833
S11373705911D317C91A0B46DB000B449B000B446D
S1137380D11ACAB21D4B5A751C4B03221A751B4BDA
S113739000221A611C4B03221A701C4B1C4A1A60EF
S11373A003201C490122FFF725FF1B4B1B78DBB28E
S11373B0002B03D0194B28221A600FE00EE00D4B6E
S11373C040F664121A800C4B01221A7006E0094B35
S11373D040F664121A80084B01221A701037BD4619
S11373E080BD00BF9C040010E40B00100840004066
S11373F0540A0010800900107D0900105804001080
S113740060B30000A7C867DD7C0900109C09001068
S1137410556F00006E040010400A0010940900101B
S113742080B586B000AF7860334B1B68C3F3130399
S113743040F6354202FB03F2304B1B6813447B6178
S11374402F4B1B687A699A4203D27A692D4B1344F5
S11374507B612B4B1B687A69D31A3B613B6946F20B
S1137460A712934200D843E0274BD3F800213B698D
S11374709A4203D9244A3B69C2F80031224BD3F81B
S1137480003103F5613303F25233204AA2FB032394
S11374909B0CFB811E4BDB8BFA899A421ED11A4B43
S11374A0D3F804310133184AC2F80431164BD3F827
S11374B00431052B19D1174B174A1A60174B40F6A4
S11374C064121A80164B04221A70164B01221A7089
S11374D0022015490222FFF78DFE06E00C4AFB89C3
S11374E0D383094B0022C3F80421054A7B69136046
S11374F01837BD4680BD00BFE40B001008400040B3
S1137500580A0010C0ABC6C2EC0B0010C1A91991F7
S1137510580400109C0900108572000080090010B6
S11375207C0900107D0900107604001080B584B039
S113753000AF7860284B1B69002B49D17B6804336A
S11375401B78012B44D17B6805331B78002B3FD17A
S11375507B6808331B781A047B6807331B781B028B
S113756013437A68063212781343BB607B68043392
S1137570B8681946022201F09FF80246164B9A6039
S1137580154B0022DA600023FB6013E0124BDA682B
S1137590114B9968FB6821FA03F303F00101FB68BE
S11375A0C3F1170301FA03F313430B4AD360FB68D7
S11375B00133FB60FB68172BE8DD074B01221A61DE
S11375C0064B074A1A60012006490322FFF712FE00
S11375D01037BD4680BD00BF580400109C09001040
S11375E0217400006004001080B487B000AF78609C
S11375F04FF0FF333B614FF0FF33FB6000237B61AF
S113760015E0224A7B6952F833207B689A420BD1F9
S11376101E4A7B69DB0013445B685A1C1B497B6967
S1137620DB000B445A602CE07B6901337B617B698E
S11376301F2BE6DD00237B6115E0144A7B69DB0028
S113764013445A683B699A4202DB3B69002B07DA10
S11376507B69FB600D4A7B69DB0013445B683B611B
S11376607B6901337B617B691F2BE6DD0749FB687E
S11376707A6841F83320054AFB68DB001344012291
S11376805A601C37BD465DF8047B7047EC0B001054
S113769090B5A1B000AF786007F11C0340221846F2
S11376A00021FCF7A9FD01233B77012387F82C3047
S11376B0012387F82F30012387F83C30012387F812
S11376C03E30012387F84C30012387F84E300123E4
S11376D087F84F300023FB6741E0A54B1B889BB222
S11376E0DBB2623BDBB2184600F044FF03461A46A5
S11376F0A04B9B5C3B670023BB672AE0FB6F1B012D
S113770007F180021A44BB6F1344643B1A789A4908
S11377103B6F0B441B785340D9B2FB6F1B0107F13D
S113772080021A44BB6F1344643B0A461A703B6FD1
S113773001331946914BA1FB0323C81A40080344A3
S11377409A091346DB019B1ACA1A3A67BB6F0133C5
S1137750BB67BB6F0F2BD1DDFB6F0133FB67FB6F87
S1137760032BBADD2023FB67D0E0854B07F10C0423
S11377700FCB84E80F004FF0FF33FB660023BB6799
S113778026E000237B671DE0FA6F7B6F13441A46E3
S11377907B6813441A78BB6F1B0107F180011944FD
S11377A07B6F0B44643B1B789A4208D0BB6F9B00F1
S11377B007F180021344002243F8742C05E07B6F28
S11377C001337B677B6F0F2BDEDDBB6F0133BB6740
S11377D0BB6F032BD5DD0023BB670EE0BB6F9B00A3
S11377E007F18002134453F8743C002B02D0BB6FA2
S11377F0FB6605E0BB6F0133BB67BB6F032BEDDD9D
S1137800FB6E002B7FDB5A4B1B889BB2DBB2623BC7
S1137810DBB2184600F0AEFE03461A46554B9B5C9D
S11378203B670023BB674CE0002387F86B300023E1
S11378307B6739E0BB6FDA007B6F1A44FB6F13443C
S1137840203B3B663B6EB3F5487F00DB2FE03B6E8D
S11378507A6813441B787B66BB6F032B16DD464A9C
S11378603B6F13441B781A467B6E53407B663B6F19
S113787001331946414BA1FB0323C81A40080344B2
S11378809A091346DB019B1ACA1A3A677A6E7B6F10
S113789002FA03F3DAB297F86B301343DBB287F8DA
S11378A06B307B6F01337B677B6F072BC2DD354BFE
S11378B01A68BB6F134497F86B201A70BB6F0133BF
S11378C0BB67BB6F092BAFDD2E4B1B6803331B78E3
S11378D01A062C4B1B6802331B781B041A43294BD2
S11378E01B6801331B781B021343264A1268127863
S11378F01343FB65F86DFFF777FE224B1B680120ED
S11379001946FCF705FEFB6F0133FB67FB6FB3F50C
S11379103C7FFFF62AAF0023FB6720E01A4AFB6F87
S1137920DB0013445B68032B16DD174AFB6F52F828
S113793033301846FEF780FD144B154A1A60154B78
S1137940154A1A60154B00221A61002013490422BB
S1137950FFF750FC002306E0FB6F0133FB67FB6F6E
S11379601F2BDBDD012318468437BD4690BD00BFC5
S11379709C04001038B30000B8B2000011080402DF
S113798054BB000054040010EC0B001098090010C4
S1137990796D00009C0900102D750000580400103A
S11379A080B500AF2CE0FEF7ADFD184B1B889BB2F1
S11379B003F00103002B03D0144B40F688121A8005
S11379C0134BDB6B002B07D1FCF710FF114B124A52
S11379D01A600A20FEF7A6FD104B1B78DBB20A2BB7
S11379E000D012E000200A490422FFF703FC0C4BEC
S11379F00C4A1A60064B00221A610A20FEF70EFF99
S1137A00064B1B78DBB20A2BCDD080BD9C04001042
S1137A105804001098090010917600003F0A0010E5
S1137A209C0900102D75000090B589B000AF354A4F
S1137A303B1D144620686168A26807C3A2891A80A6
S1137A400B23FB760023FB610EE0FB690233FA692A
S1137A50C2F105022C498A5C07F120010B4403F8AA
S1137A601C2CFB690133FB61FB69052BEDDD274B06
S1137A70D968FB7E3A1D084611461A4600F0D8FD27
S1137A807861FB7E7A69D2B207F120010B4403F8D6
S1137A901C2CFB7E01337A69120AD2B207F1200151
S1137AA00B4403F81C2CFB7E02337A69120CD2B20D
S1137AB007F120010B4403F81C2C1BE0144B4FF07E
S1137AC080721A60124B4FF080621A60FB7E03339F
S1137AD0DAB23B1D0F4811461A46FEF723F90E4B46
S1137AE04FF080721A600C4B4FF080621A60642071
S1137AF0FDF742FD094B1B78DBB20C2BDED024379B
S1137B00BD4690BD64BB00008C09001058040010F1
S1137B1080E100E0D6BE898E00E100E03F0A00105B
S1137B2090B591B000AF002387F83D305A4B102236
S1137B301A6000F09FFE594B80221A60122042F610
S1137B40223102F011F9142041F24B3102F00CF908
S1137B50202040F2011102F007F90320292102F04C
S1137B6003F900BF02F0B8F9034603F04003002B09
S1137B70F8D000BF02F0B0F9034603F00403002B71
S1137B80F8D17AE0464B1B88FB876FE0FB8F013B03
S1137B909BB20220194602F0E7F8612002F0A6F930
S1137BA000BF02F099F9034603F00403002BF8D058
S1137BB0622002F09BF94FF4FA737B6000BF7B688C
S1137BC0013B7B60002BFAD197F83D2013465B0004
S1137BD01344FA8F120A92B2D2B207F140010B4455
S1137BE003F8382C97F83D2013465B001344013307
S1137BF0FA8FD2B207F140010B4403F8382C97F8FE
S1137C003D2013465B0013449C1C062002F096F8AA
S1137C1003461B0A9BB2DAB207F14003234403F87C
S1137C20382C97F83D30013387F83D3097F83D30D4
S1137C30102B0DD107F1080304201946FCF768FC4A
S1137C40002387F83D30174B1B68184600F0B2FE3E
S1137C50642002F04BF900BF02F03EF9034603F042
S1137C600403002BF8D1FB8F0133FB87FA8F0E4BF3
S1137C701B889BB201339A4288DB0C4B1B78DBB226
S1137C80042B3FF47FAF0A4B00221A70094B1022D9
S1137C901A604437BD4690BD38C0092058C0092039
S1137CA09E040010E40B0010A00400103F0A001012
S1137CB03E0A00103CC0092080B584B000AF002308
S1137CC0FB735B4A07F108031068186092889A8076
S1137CD0584B80221A60122042F6223102F044F8F6
S1137CE0142041F24B3102F03FF8202040F2011100
S1137CF002F03AF80320292102F036F80620F12197
S1137D0002F032F800BF02F0E7F8034603F0400344
S1137D10002BF8D000BF02F0DFF8034603F00403A1
S1137D20002BF8D179E0FB7B5B0007F110021344D0
S1137D3033F8083C013B9BB20220194602F014F8C8
S1137D40612002F0D3F800BF02F0C6F8034603F046
S1137D500403002BF8D0622002F0C8F84FF4FA7341
S1137D607B6000BF7B68013B7B60002BFAD106205F
S1137D7001F0E4FF03461B0A9BB2BB732E4B1B7836
S1137D80DBB297F90E205BB29A4215DDFB7B012B27
S1137D9009D0022B0BD0002B00D021E0274B4FF44D
S1137DA080721A6007E0254B10221A6003E0234B0F
S1137DB002221A6000BF13E0FB7B012B08D0022BC8
S1137DC00AD0002B0CD11E4B4FF480721A6007E0CE
S1137DD01B4B10221A6003E0194B02221A6000BFE9
S1137DE0FB7B5A1C174B83FB0231D317C91A0B4672
S1137DF05B000B44D11A0B46FB73134B1B681846EC
S1137E0000F0D8FD642002F071F800BF02F064F8BD
S1137E10034603F00403002BF8D10C4B1B78DBB2B0
S1137E20072B80D00A4B00221A701037BD4680BD44
S1137E3074BB000058C00920A204001038C00920F7
S1137E403CC0092056555555E40B00103F0A00105C
S1137E503E0A001080B500AF01F0AAFEFDF7B2FAA9
S1137E60424800F0DFFC424B1B68184600F0A2FDBC
S1137E70404B1B78DAB2404B1B78DBB29A4274D089
S1137E803C4B1B78DBB20D2B6ED801A252F823F0C9
S1137E90637F0000D57E0000697F0000FF7E000044
S1137EA0437F00000F7F0000357F0000497F000002
S1137EB0E17E0000ED7E0000F37E0000C97E00003C
S1137EC0F97E00004F7F0000012001F069FD02F0FF
S1137ED017F94AE0284B01221A70FEF77DF944E0B5
S1137EE0254B08221A70FEF777F93EE0FFF76EF98A
S1137EF03BE0FFF755FD38E0FFF796FD35E01E4BFC
S1137F0003221A701D481E4901F0C8F82DE01A4BCF
S1137F1005221A701A4800F06BFD174B00221A70E4
S1137F20144B1B78DBB2052B03D1124B00221A70C1
S1137F301BE01AE0104B06221A70114800F076FF7D
S1137F4013E0FFF7EDFD10E0FFF7B6FE0DE00A4B7E
S1137F500D221A700B4B1B78DBB2184601F06EFC35
S1137F6003E0FDF7E7FD00E000BF7CE7D94800002F
S1137F70E40B00103F0A00103E0A0010420A0010F1
S1137F809C040010410A001080B485B000AFC7E91A
S1137F9000010023FB730023FB7310E0D7E90023E7
S1137FA012F1FF3243F1FF33D7E9000102EA000284
S1137FB003EA0103C7E90023FB7B0133FB73D7E921
S1137FC000231343EAD1FB7B18461437BD465DF802
S1137FD0047B704780B584B000AF7A4BD3E90023AB
S1137FE01346BB6078494FF000024FF00003C1E92B
S1137FF000230023FB7314E0F87BFB7B5900734BD5
S113800083FB01235A11CB17D21A13469B00134446
S11380101B019B1ACA1AD2B26D4B1A54FB7B013353
S1138020FB73FB7B4E2BE7D9BB68DB0DDBB203F0A4
S11380301F03DAB2674B1A70BB68DB0CDBB203F0C8
S11380400F03DAB2644B1A70BB681B09DBB203F08E
S11380501003DAB2BB68DB08DBB203F00803DBB25F
S11380601344DAB2BB689B08DBB203F00403DBB24F
S11380701344DAB2BB685B08DBB203F00203DBB281
S11380801344DAB2BB68DBB203F00103DBB213447E
S1138090DAB2524B1A70BB689B0A9BB2C3F3080353
S11380A09AB24F4B1A80BB68DB09DBB203F0400382
S11380B0DAB2BB689B09DBB203F02003DBB21344E2
S11380C0DAB2BB685B09DBB203F01003DBB2134422
S11380D0DAB2BB681B09DBB203F00803DBB213445A
S11380E0DAB2BB68DB08DBB203F00403DBB213448F
S11380F0DAB2BB689B08DBB203F00203DBB21344C1
S1138100DAB2BB685B08DBB203F00103DBB21344F1
S1138110DAB2344B1A70344B1B78002B4FD0334BEC
S113812000221A700023FB7314E0FB7B304AD35CFB
S1138130DAB24FF0000310461946FFF725FF034655
S11381401A462A4B1B781344DAB2284B1A70FB7B6D
S11381500133FB73FB7B092BE7D90023FB7100235D
S1138160FB7312E0FB7B5900184B83FB01235A116C
S1138170CB17D21A13469B0013441B019B1ACA1A2D
S11381801346BB73FB7B0133FB73FB7B4E2BE9D99B
S1138190BB7BDB08DBB21A46154B9B5C1A46BB7BE8
S11381A003F0070342FA03F303F00103002B06D0A4
S11381B0FB795A1CFA711946054ABB7B5354103794
S11381C0BD4680BDB8100010F80C0010553AB267D7
S11381D0201100101B110010C81000101C110010F9
S11381E0CA1000106F11001024100010C9100010E4
S11381F0BC0B001090B492B000AF0346FB710B4669
S1138200BB711346BB80FB7903F01F03FB71BB7981
S113821003F01F03BB71BB88C3F30803BB805C4A34
S113822007F11C03144620686168A26807C3A28989
S11382301A80584A07F10C03144620686168A26842
S113824007C3A2891A8000237B6410E0BA887B6C80
S113825042FA03F3DBB203F00103D9B207F12C02B3
S11382607B6C13440A461A707B6C01337B647B6C11
S1138270082BEBDD00237B6411E07B6C0933B979B7
S11382807A6C41FA02F2D2B202F00102D2B207F1E0
S113829048010B4403F81C2C7B6C01337B647B6C1E
S11382A0042BEADD00237B6410E0FA797B6C42FA4C
S11382B003F3DBB203F00103D9B207F13C027B6C98
S11382C013440A461A707B6C01337B647B6C042B69
S11382D0EBDD0D237B6436E007F12C027B6C134449
S11382E01B78002B2CD007F11C027B6C13441B78E9
S11382F007F14802134413F80C3C87F8423007F1A5
S11383001C027B6C13441B78194607F10C027B6C2E
S113831013441B7807F14802134413F80C2C07F19B
S113832048030B4403F80C2C07F10C027B6C134438
S11383301B7807F14802134497F8422003F80C2CE9
S11383407B6C013B7B647B6C002BC5DA002387F8D4
S1138350433000237B6411E007F13C027B6C13443F
S11383601B781A467B6C02FA03F3DAB297F84330AF
S1138370134487F843307B6C01337B647B6C042BA0
S1138380EADD97F8433018464837BD4690BC70473D
S11383907CBB00008CBB000080B58AB000AF786065
S11383A07B689B08DBB203F01F0387F826307B68E9
S11383B05B08DBB203F0010387F8253097F825301A
S11383C09BB25B017B847B685B0DDAB24B4B1B7801
S11383D05340DBB203F01F0387F821307B681B0C8A
S11383E0DAB2474B1B785340DBB203F01F0387F824
S11383F020307B68DB099AB2424B1B8853409BB206
S1138400C3F30803FB837B68DB0823F07E4323F07C
S11384100F03BB61B9693C4BA3FB01239A091346C3
S11384209B0013441B019B1ACB1A7B6197F82620EF
S113843097F821301344DBB2DBB203F01F03DAB246
S1138440324B1B78DBB25340DBB2D9B297F82530FC
S11384501A465201D31ADBB2DAB297F820305340ED
S1138460DBB2DAB2FB8B084611461A46FFF7C2FEAE
S11384700346FB74FB7C264A127813441A467B6934
S11384801A447B8CD118204BA3FB01239A09134671
S11384909B0013441B019B1ACA1A1E4B9B5C87F852
S11384A027301D4B1B78002B1DD01C4B1B781A4604
S11384B0BB69B3FBF2F102FB01F29B1AFB60FB7C8C
S11384C0134A127813441A46FB681A447B8C1344EB
S11384D0124A1278B3FBF2F102FB01F29B1A104A22
S11384E0D35C87F8273097F827309BB203F66213E2
S11384F09BB218462837BD4680BD00BF1B11001033
S11385001C110010CA100010A97464CFC810001008
S11385106F1100102011001024100010C910001059
S1138520CC10001080B584B000AF78607B685B7DB0
S1138530184600F04BF80346FB817B685B7D1A46C6
S11385407B689B7D1A440A4B82FB03015318591123
S1138550D317C91A0B46DB000B449B000B44D11AFA
S1138560CAB27B685A75FB8918461037BD4680BD70
S1138570A7C867DD80B485B000AF0346FB71FB7903
S11385805B08FB71FB79002B02D12523FB7315E0FB
S1138590FB790B2B03D8FB79013BFB730EE0FB79D2
S11385A00C2B02D12623FB7308E0FB79262B03D87E
S11385B0FB79023BFB7301E02723FB73FB7B18462B
S11385C01437BD465DF8047B704700BF80B485B0A6
S11385D000AF0346FB71FB790A2B06D8FB7903F243
S11385E0B2439BB25B00FB811AE0FB79242B06D8D3
S11385F0FB7903F2B3439BB25B00FB8110E0FB7990
S1138600252B03D140F66213FB8109E0FB79262B6D
S113861003D140F67A13FB8102E04FF41B63FB8124
S1138620FB8918461437BD465DF8047B704700BFCC
S113863080B48BB000AFF860B9607A60FB6823F057
S11386407F437B621B4B7B6100233B6227E03B6AD9
S1138650BA6813441B78FB760023FB6119E0FA7EA9
S11386607B6A534003F001033B61FB7E5B08FB76AE
S11386707B6A5B087B623B69002B07D07B6A43F40F
S113868000037B627A6A7B6953407B62FB69013336
S1138690FB61FB69072BE2DD3B6A01333B623A6A0B
S11386A07B689A42D3DB7B6A18462C37BD465DF85B
S11386B0047B704700605A0080B48DB000AFF8604E
S11386C0B9607A60FB68FB622B4BFB617B68013B02
S11386D07B622DE07B6ABA6813441B78FB76002327
S11386E03B621FE0FB6ADB0D7B61FB6A5B0023F0EE
S11386F07F43FB62FA7E3B6AC3F1070342FA03F34A
S113870003F001027B6953401A46FB6A1343FB6280
S11387107B69002B03D0FA6AFB695340FB623B6A16
S113872001333B623B6A072BDCDD7B6A013B7B62E6
S11387307B6A002BCEDA0023BB6200237B6210E04D
S1138740FA6A7B6A22FA03F303F001027B6AC3F13B
S1138750170302FA03F3BA6A1343BB627B6A013359
S11387607B627B6A172BEBDDBB6A18463437BD4648
S11387705DF8047B704700BF00C0B40080B489B0CA
S113878000AFF860B9607A60FB6823F07F43FB6157
S11387900023BB6112E0BB69BA6813441A78FB6911
S11387A0DBB25340FB75FB691A0AFB7D094951F89A
S11387B023305340FB61BB690133BB61BA697B68F9
S11387C09A42E8DBFB6918462437BD465DF8047B12
S11387D0704700BFA804001090B587B000AFF860E0
S11387E0B9607A60FB685B883B82FB689B887B820C
S11387F00B4B1C68FB6859787B681B6807F11002F7
S1138800084611461A46BB68A04778617B69012B6C
S11388100CBF01230023DBB218461C37BD4690BDB4
S11388207432001080B582B000AF786001F0CEFDE4
S11388300B4802F02DFA0B4A7B68136002200A49A8
S11388400A4A01F09FFDFF20094902F0CBF90120FB
S113885001F0FEFE002318460837BD4680BD00BF68
S11388609CBB000074320010D987000070310010E6
S113887060BC000080B400AF044B00221A60044BBB
S113888000221A60BD465DF8047B70475C0A001044
S1138890600A001080B483B000AF134B1B68DBB2D6
S11388A003F07F03FB71114B1B68DBB203F07F0302
S11388B0BB71BB790133DBB203F07F037B71FA79BF
S11388C07B799A4201D1002308E0084B1B680133ED
S11388D0064A1360BB799B01054A134418460C37BA
S11388E0BD465DF8047B70475C0A0010600A001006
S11388F07011001080B483B000AF104B1B68DBB262
S113890003F07F03FB710E4B1B68DBB203F07F03A4
S1138910BB71FA79BB799A4201D1002308E0074B75
S11389201B680133054A1360FB799B01054A134414
S113893018460C37BD465DF8047B70475C0A00108E
S1138940600A00107011001080B584B000AF786028
S113895007F10C031846FFF7CDFF0346FB60FB68E5
S1138960002B0AD0114A7B681360FB6882201946E9
S1138970402201F0C9FE012313E00C4B1B687A6806
S1138980D31A0B4A93420BD90323FB72074A7B6821
S1138990136007F10B0382201946012201F0B4FE93
S11389A0002318461037BD4680BD00BF640A00107E
S11389B0801A060080B584B000AF7860822001F090
S11389C067FE0346FB73FB7B03F02003002B02D1FD
S11389D07868FFF7B9FFFB7B03F04003002B02D15B
S11389E07868FFF7B1FF01F055FF1037BD4680BD31
S11389F02DE9F04F95B000AF7860694639601621D3
S1138A0087F84610002187F8471097F846603146EA
S1138A1001393964F0B24FF000014FEAC10B4BEA5F
S1138A20507B4FEAC00AF0B24FF000014FEAC1098F
S1138A3049EA50794FEAC00831460731C908C900EC
S1138A40ADEB010D69460031F96397F84660314694
S1138A500139B963F0B24FF00001CD0045EA507519
S1138A60C400F0B24FF00001CB0043EA5073C200DF
S1138A7033460733DB08DB00ADEB030D6B460033F5
S1138A807B6397F84630013BDAB2FB6B1A70FB6BE1
S1138A9000225A703A233B62B34B1B6807F1200152
S1138AA007F10C02084611469847FB68DBB2002B1D
S1138AB001D00023ACE13B691B0EDAB2FB6B9A7068
S1138AC03B691B0CDAB2FB6BDA703B691B0ADAB246
S1138AD0FB6B1A713B69DAB2FB6B5A717B691B0E33
S1138AE0DAB2FB6B9A717B691B0CDAB2FB6BDA713D
S1138AF07B691B0ADAB2FB6B1A727B69DAB2FB6B15
S1138B005A72BB691B0EDAB2FB6B9A72BB691B0CFF
S1138B10DAB2FB6BDA72BB691B0ADAB2FB6B1A734B
S1138B20BB69DAB2FB6B5A73FB691B0EDAB2FB6BDF
S1138B309A73FB691B0CDAB2FB6BDA73FB691B0AD1
S1138B40DAB2FB6B1A74FB69DAB2FB6B5A74FB6B17
S1138B5097F847209A74FB6B0022DA74FB6BFF22B0
S1138B601A75FB6BFF225A75122042F6223101F06E
S1138B70FBF8142041F24B3101F0F6F8202040F6C6
S1138B80F15101F0F1F87B681B889BB20220194671
S1138B9001F0EAF82D204FF6AE1101F0E5F82C2093
S1138BA041F2845101F0E0F897F8473043F00803AC
S1138BB0DBB29BB20520194601F0D6F80320292127
S1138BC001F0D2F800BF01F087F9034603F0400337
S1138BD0002BF8D0612001F089F900BF01F07CF985
S1138BE0034603F00403002BF8D0604B4FF480726B
S1138BF01A605F4B80221A60002387F847303EE0FA
S1138C0097F8473043F00803DBB29BB205201946BE
S1138C1001F0AAF8FB6B97F847209A740023FB64D1
S1138C2025E0FB6CDAB2FB6BDA7400BF0E2001F0B6
S1138C3085F8034603F01F030F2BF7D10023BB6411
S1138C400AE0FA6BBB6C13441B787020194601F0E0
S1138C50B9F8BB6C0133BB6497F84620BB6C9A42ED
S1138C60EFDC632001F042F9FB6C0133FB64FB6C25
S1138C700F2BD6DD97F84730013387F8473097F844
S1138C804730072BBCD900BF0E2001F057F803462C
S1138C9003F01F030F2BF7D1364B4FF480721A6089
S1138CA0642001F023F900BF01F016F9034603F034
S1138CB00403002BF8D17B681B889BB2013B9BB259
S1138CC00220194601F050F800BF01F005F90346EF
S1138CD003F04003002BF8D0612001F007F900BF36
S1138CE001F0FAF8034603F00403002BF8D01F4BFD
S1138CF010221A6000BF0E2001F020F8034603F092
S1138D001F030F2BF7D1622001F0F0F800BF01F030
S1138D10E3F8034603F01003002BF8D0134B0222B0
S1138D201A600023BB640CE0702001F031F80346A4
S1138D3019467A6BBB6C13440A461A70BB6C013338
S1138D40BB6497F84620BB6C9A42EDDC01F0C4F892
S1138D50034603F00803002B01D000BF0CE0054BD1
S1138D6002221A60C6E700BFA808001038C0092014
S1138D7058C009203CC009200E2000F0DFFF034644
S1138D8003F01F030F2BF7D1642001F0AFF800BFED
S1138D9001F0A2F8034603F00403002BF8D1204BA2
S1138DA080221A601F4B10221A601F4B01221A7076
S1138DB07B6B9A7C1C4B5A707B6BDA7C1A4B9A70D7
S1138DC07B6B1A7D184BDA707B6B5A7D164B1A71CC
S1138DD0FB6B01225A700023FB6412E07A6BFB6C7C
S1138DE013441A78F96BFB6C0B441B789A4205D038
S1138DF0FB6CDBB20233DAB20B4B1A70FB6C01333F
S1138E00FB64FB6C112BE9DD064B02221A60012383
S1138E10D7F800D0012B5437BD46BDE8F08F00BF12
S1138E205CC009203CC0092070100010F0B589B066
S1138E3000AF78601621B9750021F975BE7D314601
S1138E4001393961F0B24FF00001CD0045EA5075A7
S1138E50C400F0B24FF00001CB0043EA5073C200EB
S1138E6033460733DB08DB00ADEB030D6B46003301
S1138E70FB60122042F6223100F076FF142041F20A
S1138E804B3100F071FF7B681B889BB2013B9BB2A6
S1138E900220194600F068FF2D204FF6AE1100F0B5
S1138EA063FF2C2041F2845100F05EFF052008216D
S1138EB000F05AFF0320292100F056FF00BF01F003
S1138EC00BF8034603F04003002BF8D0612001F0B7
S1138ED00DF800BF01F000F8034603F00403002B73
S1138EE0F8D06A4B10221A60694B4FF480721A60F2
S1138EF0674B02221A60674B80221A6000BF0E2063
S1138F0000F01CFF034603F01F030F2BF7D1604B47
S1138F1002221A60622000F0E9FF00BF00F0DCFFCB
S1138F20034603F01003002BF8D0584B02221A60BA
S1138F300023FB610CE0702000F02AFF0346194671
S1138F40FA68FB6913440A461A70FB690133FB6132
S1138F50BA7DFB699A42EEDC00F0BEFF034603F0E3
S1138F600803002B03D000BF4B4BFB6100E0C5E7B7
S1138F70FB69013BFB61FB69002BF9D1444B0222E5
S1138F801A60434B10221A60642000F0AFFF00BF48
S1138F9000F0A2FF034603F00403002BF8D100BF46
S1138FA000F09AFF034603F04003002BF8D07B68DF
S1138FB01B889BB20220194600F0D6FE00BF00F0C9
S1138FC08BFF034603F04003002BF8D0612000F030
S1138FD08DFF2E4B4FF480721A60BB7D013BDAB2D9
S1138FE0FB681A70FB6801225A700023FB7539E094
S1138FF0FB7D43F00803DBB29BB20520194600F069
S1139000B3FEFB68FA7D1A750023FB6124E0FB695B
S1139010DAB2FB685A7500BF0E2000F08FFE0346DB
S113902003F01F030F2BF7D10023BB610AE0FA689A
S1139030BB6913441B787020194600F0C3FEBB695A
S11390400133BB61BA7DBB699A42F0DC632000F056
S11390504DFFFB690133FB61FB690F2BD7DDFB7D02
S11390600133FB75FB7D072BC2D9094B4FF480728A
S11390701A60642000F03AFF00BF00F02DFF0346A1
S113908003F00403002BF8D1F3E600BF38C0092035
S11390903CC0092058C0092080841E0080B584B0DB
S11390A000AF786039607B681B78DBB2002B02D19B
S11390B02923FB8108E07B681B78DBB2012B02D1FA
S11390C04023FB8100E037E0122042F6223100F019
S11390D04BFE142043F24B3100F046FE202040F6B4
S11390E0F15100F041FE3B681B889BB202201946F7
S11390F000F03AFEFB890320194600F035FE00BF5C
S113910000F0EAFE034603F04003002BF8D0612090
S113911000F0ECFE00BF00F0DFFE034603F00403A2
S1139120002BF8D0064B4FF480721A60632000F0D5
S1139130DDFE044B80221A601037BD4680BD00BF9F
S113914038C0092058C0092080B400AF084B4FF044
S113915080521A60074A074B1B6843F002031360EE
S1139160054B4FF080521A60BD465DF8047B704792
S113917098C00920040003409CC0092080B400AFBB
S1139180064B4FF080521A60054A054B1B6823F0CA
S113919002031360BD465DF8047B704798C0092044
S11391A00400034080B500AF034B4FF080721A6097
S11391B000F008FD80BD00BF00E100E080B500AF15
S11391C0642000F093FEFFF7D9FF024B4FF080724A
S11391D01A6080BD80E100E080B500AF0D2047F645
S11391E0FF7100F0C1FD122042F6223100F0BCFDF7
S11391F0142041F24B3100F0B7FD20204FF4986168
S113920000F0B2FD1E4B1B889BB2013B9BB20220B7
S1139210194600F0A9FD0320262100F0A5FD212018
S1139220032100F0A1FD2D2046F20F3100F09CFD3A
S11392302C2049F6FE7100F097FD00BF00F04CFEB3
S1139240034603F04003002BF8D0FFF77DFF6120B5
S113925000F04CFE00BF00F03FFE034603F00403A1
S1139260002BF8D000BF0E2000F068FD034603F089
S11392701F030F2BF7D1622000F038FE80BD00BF22
S11392809C04001080B485B000AF78600023FB60BC
S113929011E000BF0C4B1B6803F00403002BF9D052
S11392A00A4B1B68D9B27A68FB6813440A461A70E1
S11392B0FB680133FB60FB68232BEADD1437BD46F2
S11392C05DF8047B704700BF0C00034008000340B6
S11392D080B500AF00F000FE034603F0100318460B
S11392E080BD00BF80B483B000AF786039600C4BA0
S11392F01B68C3F3130340F6354202FB03F2094B28
S11393001B681A447B689A603B6842F2107202FB45
S113931003F27B68DA600C37BD465DF8047B704766
S1139320E40B00100840004080B483B000AF7860C4
S113933039607B689A697B689A603B6842F2107274
S113934002FB03F27B68DA600C37BD465DF8047BF0
S1139350704700BF80B485B000AF7860134B1B68C2
S1139360C3F3130340F6354202FB03F2104B1B68B0
S11393701344FB607B689A68FB689A4205D9FB68D2
S113938003F1434303F5A003FB607B689B68FA6821
S1139390D21A7B68DB689A422CBF01230023DBB21C
S11393A018461437BD465DF8047B7047E40B001083
S11393B00840004080B483B000AF78600C37BD46ED
S11393C05DF8047B704700BF80B483B000AF786061
S11393D07B6800225A607B685B68064A32F8132077
S11393E0054B1A807B6801221A700C37BD465DF864
S11393F0047B7047B00800109C04001080B582B054
S113940000AF7860FFF7E8FE7B6802221A70083725
S1139410BD4680BD80B58CB000AF786007F108030D
S113942000221A60043300221A60043300221A60F6
S1139430043300221A60043300221A600433002229
S11394401A60043300221A60043300221A600433C1
S113945000221A60043300221A600433234B1B6871
S1139460C3F3130340F6354202FB03F2204B1B689F
S11394701344FB627868FFF76DFF0346002B06D0A8
S113948078680421FFF72EFF7B6803221A70FFF728
S11394901FFF0346002B19D0164B10221A6007F148
S11394A008031846FFF7EEFEFB6A07F108020620E0
S11394B011461A46FBF70EF90F4B10221A60786812
S11394C00621FFF70FFF7B6803221A707B681B7865
S11394D0022B07D0642000F009FDFFF74FFE7B68E4
S11394E001221A613037BD4680BD00BFE40B001075
S11394F00840004038C009203CC0092080B582B033
S113950000AF78607868FFF725FF0346002B1ED074
S11395107B685B685A1C0F4B1340002B03DA013B3A
S113952063F0030301331A467B685A607B685B6807
S1139530094A32F81320094B1A8078680721FFF78B
S1139540D1FE7B6801221A617B6801221A700837F8
S1139550BD4680BD03000080B00800109C040010CC
S113956080B483B000AF78607B6801221A700C3736
S1139570BD465DF8047B704780B58CB000AF786061
S113958007F1080300221A60043300221A6004332E
S113959000221A60043300221A60043300221A6085
S11395A0043300221A60043300221A6004330022B8
S11395B01A60043300221A60043300221A60043350
S11395C01E4B1B68C3F3130340F6354202FB03F240
S11395D01B4B1B681344FB62FFF77AFE0346002B08
S11395E029D0184B10221A6007F108031846FFF718
S11395F049FEFB6A07F10802062011461A46FBF7EA
S113960069F8114B10221A60612000F06FFC00BF52
S113961000F062FC034603F00403002BF8D000BF03
S11396200E2000F08BFB034603F01F030F2BF7D132
S1139630622000F05BFC3037BD4680BDE40B0010B7
S11396400840004038C009203CC0092080B582B0E1
S113965000AF7860FFF73CFE0346002B12D07B6816
S113966004221A707B6801225A61164B1B68C3F3EB
S1139670130340F6354202FB03F2134B1B681A44F2
S11396807B689A617B681B69002B0FD07868FFF7B1
S113969061FE0346002B09D07B6804221A707B68A4
S11396A000225A6178680B21FFF71CFE7B681B7847
S11396B0022B04D0642000F019FCFFF75FFD08378B
S11396C0BD4680BDE40B00100840004080B582B068
S11396D000AF78600D2047F6FF7100F045FB1220C3
S11396E042F6223100F040FB142043F24B3100F0EB
S11396F03BFB20204FF4986100F036FB214B1B8884
S11397009BB20220194600F02FFB0320262100F013
S11397102BFB2120032100F027FB05200F2100F063
S113972023FB00BF00F0D8FB034603F04003002BEB
S1139730F8D0612000F0DAFB00BF00F0CDFB034657
S113974003F00403002BF8D000BF0E2000F0F6FA5B
S1139750034603F01F030F2BF7D10B4B80221A6033
S1139760632000F0C3FB094B4FF480721A607B68DE
S113977005221A7078680221FFF7D6FD0837BD4626
S113978080BD00BF9C04001058C0092038C00920C7
S113979080B582B000AF78607868FFF7DBFD0346E0
S11397A0002B25D0642000F0A1FB134B80221A600B
S11397B0124B4FF480721A607B685B685A1C104B22
S11397C01340002B03DA013B63F0030301331A4611
S11397D07B685A607B685B680A4A32F813200A4B3C
S11397E01A807B6803221A7078680621FFF79CFDB3
S11397F00837BD4680BD00BF5CC009203CC00920BD
S113980003000080B00800109C04001080B582B0F2
S113981000AF78607868FFF79DFD0346002B09D000
S11398207B6801221A707B6801221A6178680B2117
S1139830FFF77AFD0837BD4680BD00BFB0B59EB0C6
S113984000AF0346FB7107F1580300221A6004338A
S113985000221A60043300221A60043300221A60C2
S1139860043300221A60043300221A6004330022F5
S11398701A600433264B07F13C041D460FCD0FC478
S113988095E8070084E80700224B07F124041D46ED
S11398900FCD0FC495E8030084E803001E4B07F1C5
S11398A00C041D460FCD0FC495E8030084E80300A3
S11398B0FB79012B07D0022B09D0002B0BD107F128
S11398C03C037B670BE007F124037B6707E007F1A8
S11398D00C037B6703E0114B00221A7015E0FFF7BD
S11398E061FC0E4B1B78DBB20D2B03D000BFFFF7DE
S11398F065FC0AE097F858309B007A6F13441B68A4
S113990007F1580210469847EBE77837BD46B0BDDB
S113991088BC0000A4BC0000BCBC00003F0A0010CE
S113992080B500AF00F0B6FF80BD00BF80B582B047
S113993000AF124B7B60124B3B6007E03B681A1D83
S11399403A607A68111D796012681A603B680D4AA2
S11399509342F3D30C4B7B6004E07B681A1D7A605E
S113996000221A607B68094A9342F6D3FAF71CFC7A
S1139970074B084A1A60FEF76DFAFEE720BD0000A7
S1139980200000105E0900106009001078320010F9
S113999008ED00E00040000080B400AFFEE700BF27
S11399A080B582B000AF0346FB71FB79044A02FB29
S11399B003F3184600F018F80837BD4680BD00BF11
S11399C040420F0080B485B000AF78600023FB6094
S11399D07B6893FAA3F3FB60FB6818461437BD4613
S11399E05DF8047B704700BF80B483B000AF78603B
S11399F07B689A087B68DB081A447B689B091A44D5
S1139A007B68DB091A447B689B0A1A447B68DB0A7F
S1139A101344074A136000BF054B1B68013B044A0B
S1139A201360002BF8D10C37BD465DF8047B7047FA
S1139A30680A001080B500AF00F036F8104B002221
S1139A401A60104B4CF212721A600F4B40F2B112B2
S1139A501A600E4B00221A600D4B4FF040521A60F0
S1139A600C4B00221A600C4B00221A600B4B002294
S1139A701A600B4B00221A600A4B00221A6080BD48
S1139A8000C0092020C0092040C0092060C009206E
S1139A9080C0092014C0092034C0092054C0092002
S1139AA074C0092094C0092080B400AF274B002261
S1139AB01A60274B00221A60264B00221A60264B9C
S1139AC000221A60254B00221A60254B00221A60DE
S1139AD0244B00221A60244B00221A60234B0022DC
S1139AE01A60234B00221A60224B00221A60224B78
S1139AF000221A60214B00221A60214B00221A60B6
S1139B00204B00221A60204B00221A601F4B0022B7
S1139B101A601F4B00221A601E4B00221A601E4B53
S1139B2000221A601D4B00221A601D4B00221A608D
S1139B301C4B00221A601C4B00221A601B4B002293
S1139B401A60BD465DF8047B704700BF00C0024048
S1139B5004C0024008C002400CC0024010C00240D1
S1139B601CC0024024C0024028C0024000C009209A
S1139B7020C0092040C0092060C0092080C00920FD
S1139B8040C0024044C0024048C002404CC00240B1
S1139B9050C002405CC0024064C0024014C00920AE
S1139BA034C0092054C0092074C0092094C009207D
S1139BB080B500AFFFF73EFF00F060F800F0C2F997
S1139BC080BD00BF80B400AF164A164B1B6823F457
S1139BD0404343F400431360124A124B1B6823F4BE
S1139BE0405343F4005313600E4A0E4B1B6823F496
S1139BF0403343F4003313600A4A0A4B1B6823F4CE
S1139C00402343F400231360074B4FF080521A6043
S1139C10064BC7221A60064B0C221A60BD465DF83B
S1139C20047B704700C0024098C009200000034034
S1139C300400034080B400AF0D4A0D4B1B6823F4AD
S1139C40701313600B4A0B4B1B6823F0C063136043
S1139C50094A094B1B6843F420131360064A064B58
S1139C601B6823F4A0131360BD465DF8047B7047A2
S1139C7004C0024000C0092044C0024080B500AFC7
S1139C80FFF7D8FF094B4FF400721A603220FFF738
S1139C90ABFE074B20221A60044B4FF480421A603B
S1139CA00D2047F6FF7100F05FF880BD38C0092031
S1139CB058C0092080B485B000AF03463960FB71F9
S1139CC0FB79013B012202FA03F3FB60184B2022CB
S1139CD01A601EE03A68FB681340002B03D0154B52
S1139CE001221A6002E0124B01221A603B685B00F9
