:10400000E03F001061900000CD900000CD900000D6
:10401000CD900000CD900000CD9000000000000089
:10402000000000000000000000000000CD90000033
:10403000CD90000000000000CD900000CD90000069
:10404000CD900000D5530000CD900000CD90000031
:10405000CD900000CD900000CD900000CD900000EC
:10406000CD900000CD900000CD900000CD900000DC
:10407000CD900000CD900000CD900000CD900000CC
:10408000CD900000CD900000CD900000CD900000BC
:10409000CD900000F1540000CD900000CD900000C4
:1040A00055900000CD90000075590000CD900000A3
:1040B000CD900000CD900000CD900000CD9000008C
:1040C000CD900000CD900000CD90000008B50548CF
:1040D000054B1B1A062B00D808BD044B002BFBD048
:1040E0009847F9E75C0900105F0900100000000024
:1040F00008B50748074B1B1A9B1003EBD3735910E5
:1041000000D108BD044A002AFBD09047F9E700BF60
:104110005C0900105C0900100000000010B5064C9E
:10412000237843B9FFF7D2FF044B13B10448AFF330
:1041300000800123237010BD600900100000000002
:10414000C8B3000008B5074B1BB107480749AFF3D8
:1041500000800748036813B1064B03B19847BDE8D8
:104160000840C5E700000000C8B300006409001063
:104170005C090010000000000146002002460346D2
:1041800000F092B838B54BF2EC344BF2E835C0F29F
:104190000005C0F20004641BA41018BF05EB8405E1
:1041A00005D0013C55F8043D9847002CF9D1BDE8F5
:1041B000384007F013B900BF70B54BF2D4364BF25C
:1041C000D435C0F20005C0F20006761BB6101CBF45
:1041D000043D002405D0013455F8043F9847A64219
:1041E000F9D14BF2DC364BF2D435C0F20005C0F207
:1041F0000006761B07F0E8F8B6101CBF043D00244B
:1042000006D0013455F8043F9847A642F9D170BD55
:1042100070BD00BFF0B4840743D0541E002A3ED0C6
:10422000CDB2034603E0621E002C38D0144603F8DA
:10423000015B9A07F7D1032C2AD9CDB245EA0525AF
:104240000F2C45EA054515D9A4F110073F0903F1E4
:10425000100606EB07161A46156055609560D56086
:104260001032B242F8D104F00F040137032C03EBF3
:1042700007130DD91E462246043A032A46F8045B6A
:10428000FAD8221F22F003020432134404F003047C
:104290002CB1C9B21C4403F8011BA342FBD1F0BCF2
:1042A000704714460346C6E7F0B54AF64C14C0F210
:1042B0000004266885B0D6F848410746002C43D054
:1042C00065681F2D21DD40F20004C0F200041CB916
:1042D0004FF0FF3005B0F0BD4FF4C870039102926B
:1042E0000193AFF3008003990446029A019B0028D2
:1042F000EED0D6F848510020256060600546C6F82B
:104300004841C4F88801C4F88C013FB96B1C0020F7
:104310000235636044F8251005B0F0BD0126AE40BB
:1043200004EB8500C0F88820D4F88821022F42EAE7
:104330000602C4F88821C0F8083102BFD4F88C31D5
:104340001E43C4F88C61E1E706F5A674C6F848413F
:10435000B6E700BF40F20003C0F200032BB144F205
:104360008510C0F20000FFF707BF704780B400AFB0
:10437000074B00221A70074B00221A60064B80225E
:104380001A70064B7F221A70BD465DF8047B704799
:10439000490A00104C0A0010040B0010B80B001062
:1043A00080B483B000AF0346FB71144B1B785AB244
:1043B00097F907309A42A8BF1346DAB20F4B1A702A
:1043C0000F4B1B785AB297F907309A42B8BF134681
:1043D000DAB20B4B1A7097F907301A02094B1B68B7
:1043E0001A44084B1A60084B1B780133DAB2064BAB
:1043F0001A700C37BD465DF8047B7047040B001043
:10440000B80B00104C0A0010490A001080B485B0A7
:1044100000AF1F4B1B78002B06D01E4B1B889BB296
:10442000A3F66213FB6001E00023FB601A4B1B78CC
:10443000002B09D0194B1B6803F18002164B1B7827
:1044400092FBF3F3BB6001E00023BB60144BFA68FE
:1044500033F812301AB213469B019B1A9B00134487
:104460007B60BA6813465B0013447A6813447B6030
:104470007B688033002B00DAFF331B1299B2084BA4
:10448000FA6823F812101437BD465DF8047B7047B4
:104490007C0900109C040010490A00104C0A00100E
:1044A000A009001080B582B000AF02460B46FA7139
:1044B000BB7197F9073013F1140F0DD097F907303E
:1044C00013F1130F08DA97F907206FF077039A4278
:1044D000A8BF1346DBB200E0EC23FB71FB79383355
:1044E000DBB203F0FC039AB2BB799BB203F0030387
:1044F0009BB213439BB29BB20620194604F0CEFF39
:10450000084BFA791A7097F9073013F1770FACBF9F
:1045100000230123DBB21A46034B1A700837BD464D
:1045200080BD00BF4D0400107E09001080B588B02A
:1045300000AF03463960FB7104F02EF9F861FB69A6
:10454000002B09D15E4B1B78DBB243F00403DAB2D7
:104550005B4B1A700023AFE0FB69FA791A70FB79A4
:10456000042B13D1574B1B681B0DDAB2FB69DA70B1
:10457000544B1B68C3F3130340F6354202FB03F2AE
:10458000514B1B681A44FB695A6008E04F4B1B688B
:10459000DAB2FB69DA704E4B1A68FB695A604D4B10
:1045A0001B889BB2DBB2623BDAB2FB699A704A4B62
:1045B0001B78DAB2FB695A72484B1B78DAB2FB6996
:1045C0001A72474B1B78002B11D0424B1B889BB2B1
:1045D000A3F66212434B33F812301BB28033002B28
:1045E00000DAFF331B12DAB2FB699A720AE03D4B24
:1045F0001B881BB28033002B00DAFF331B12DAB2A8
:10460000FB699A72384B1A78FB69DA72374B0222CF
:104610001A60FB690E33BB613B687B617B691A687A
:10462000BB691A60BB6904337A6952681A60BB6956
:1046300008337A6992681A60BB690C337A69D26868
:104640001A60BB6910337A6912691A60BB69143346
:104650007A6952691A60BB6918337A6992691A607B
:10466000BB691C337A69D2691A60BB6920337A69E5
:10467000126A1A60BB6924337A69526A1A60BB698C
:1046800028337A69926A1A60BB692C337A69D26AD4
:104690001A60FB690E333B613B68FB603B6930335A
:1046A000FA68128E1A80064B1B78DAB2FB695A70D0
:1046B000034B00221A70012318462037BD4680BDE7
:1046C000480A0010E40B00100840004028100010B9
:1046D000C80B001088090010B80B0010040B001064
:1046E0007C090010A0090010490A001038C00920F8
:1046F00080B58AB000AF0346B9607A60FB7304F0FE
:104700004BF878627B6A002B09D13C4B1B78DBB2FB
:1047100043F00403DAB2394B1A70002369E07B6A74
:104720000022DA707B6A7A685A60354B1B889BB22C
:10473000DBB2623BDAB27B6A9A707B6A00229A72C1
:104740007B6A0022DA722F4B02221A607B6A0E33D8
:104750003B62BB68FB61FB691A683B6A1A603B6A93
:104760000433FA6952681A603B6A0833FA6992683E
:104770001A603B6A0C33FA69D2681A603B6A1033DC
:10478000FA6912691A603B6A1433FA6952691A604D
:104790003B6A1833FA6992691A603B6A1C33FA69FA
:1047A000D2691A603B6A2033FA69126A1A603B6A5E
:1047B0002433FA69526A1A603B6A2833FA69926AAA
:1047C0001A603B6A2C33FA69D26A1A607B6A0E332C
:1047D000BB61BB687B61BB6930337A69128E1A801A
:1047E000064B1B78DAB27B6A5A70044B00221A70AF
:1047F000012318462837BD4680BD00BF480A001077
:104800009C04001038C0092080B582B000AF174B5F
:104810001B78002B1DD0164B1B785BB2002B18DDCC
:10482000144B1B889BB2A3F66212134B33F8123061
:104830001BB28033002B00DAFF331B12BB71BA7935
:104840000B4B1B78DBB21344DBB2363BDBB2FB71A4
:1048500002E0074B1B78FB7197F9073018460321DC
:10486000FFF720FE0837BD4680BD00BF7C09001061
:104870004C0400109C040010A009001080B400AF8C
:10488000094B00221A70094B4FF400121A60084BB2
:1048900004221A60074B074A126842F004021A60A9
:1048A000BD465DF8047B7047B010001000E100E0E9
:1048B000AC800240B480024080B400AF094B094A8A
:1048C000126822F004021A60074B04221A60074B98
:1048D0004FF400121A60064B00221A70BD465DF8B4
:1048E000047B7047B4800240AC80024080E100E06D
:1048F000B01000102DE9F04F95B000AFB9607A60AC
:104900003B600346FB7300237B64FB7B3C2B00F284
:10491000258501A252F823F00D4A0000174A000035
:104920005D530000274A0000494A0000654A000024
:10493000874A0000A34A0000C54A0000E54A00007B
:10494000074B0000534D0000794D00007B4B0000E9
:10495000834B0000274B0000614C0000814C00009D
:10496000B94C0000D94C00005D5300002D4D0000F3
:10497000354D0000474D0000034E0000214E000061
:104980005D5300002D4E00005D5300005D5300009C
:104990005D5300005D530000F54C0000AF4E000079
:1049A000894E0000234F0000794F0000894F00001E
:1049B0009B4F000067500000AB50000037510000D3
:1049C0006B5100008D510000BD510000615300008B
:1049D000EF51000029520000455200005B520000D8
:1049E00087520000DD5000000D510000A35200006E
:1049F000E7520000F14E0000F95200005D53000044
:104A0000D15200005D5300003D5300003B6800227E
:104A10001A6000F0A6BCA04B01221A703B6800226D
:104A20001A6000F09EBC9D4B1B6803F00203002B34
:104A30000CBF00230123DBB21A467B681A703B6867
:104A400001221A6000F08DBCBB681B88002B04D0CB
:104A5000934B02221A6000F084BC924B02221A602F
:104A600000F07FBC8D4B1B6803F01003002B0CBFC4
:104A700000230123DBB21A467B681A703B680122CF
:104A80001A6000F06EBCBB681B88002B04D0844BFE
:104A900010221A6000F065BC824B10221A6000F0F0
:104AA00060BC7E4B1B6803F48073002B0CBF00239B
:104AB0000123DBB21A467B681A703B6801221A6038
:104AC00000F04FBCBB681B88002B05D0744B4FF423
:104AD00080721A6000F045BC724B4FF480721A600D
:104AE00000F03FBC6D4B1B6803F40073002B0CBF40
:104AF00000230123DBB21A467B681A703B6801224F
:104B00001A6000F02EBCBB681B88002B05D0644BDC
:104B10004FF400721A6000F024BC624B4FF4007234
:104B20001A6000F01EBC36237B625F4B1B6807F1E6
:104B3000240107F110020846114698473B69DAB292
:104B40007B681A707B6801337A69D2B21A707B680D
:104B500002337A69120AD2B21A707B6803337A6917
:104B6000120CD2B21A707B6804337A69120ED2B278
:104B70001A703B6805221A60F3E3474B0B221A7048
:104B8000EFE33A237B62484B1B6807F1240107F1EE
:104B900010020846114698473B69DAB27B681A70E2
:104BA0007B6801337A69D2B21A707B6802337A6902
:104BB000120AD2B21A707B6803337A69120CD2B22D
:104BC0001A707B6804337A69120ED2B21A707B684D
:104BD0000533BA69D2B21A707B680633BA69120A11
:104BE000D2B21A707B680733BA69120CD2B21A704B
:104BF0007B680833BA69120ED2B21A707B68093327
:104C0000FA69D2B21A707B680A33FA69120AD2B210
:104C10001A707B680B33FA69120CD2B21A707B6877
:104C20000C33FA69120ED2B21A707B680D333A6AED
:104C3000D2B21A707B680E333A6A120AD2B21A7074
:104C40007B680F333A6A120CD2B21A707B68103349
:104C50003A6A120ED2B21A703B6811221A6080E3CF
:104C6000124B1B6803F08003002B0CBF00230123B1
:104C7000DBB21A467B681A703B6801221A6070E347
:104C8000BB681B88002B03D0094B80221A6068E3A5
:104C9000084B80221A6064E33F0A001034C00920E8
:104CA00038C009203CC009204804001054C0092025
:104CB00058C009205CC009209D4B1B6803F4807319
:104CC000002B0CBF00230123DBB21A467B681A704D
:104CD0003B6801221A6044E3BB681B88002B04D0A8
:104CE000944B4FF480721A603BE3934B4FF4807205
:104CF0001A6036E3914B1A787B681A707B6801332F
:104D00008E4A52781A707B6802338C4A92781A70F5
:104D10007B680333894AD2781A707B680433874AE8
:104D200012791A703B6805221A601AE3844B00223C
:104D30001A7016E3834B1B78DAB27B681A703B68F3
:104D400001221A600DE3BB681B88DAB27D4B1A7032
:104D500007E37D4B1B889BB2DAB27B681A707B68D5
:104D60000133794A128892B2120A92B2D2B21A7000
:104D70003B6802221A60F4E2BB681A88734B1A80FF
:104D8000724B1B889AB240F6EA239A4207D9704BBD
:104D900001221A706D4B40F662121A8020E06C4BB3
:104DA00000221A70694B1B889AB240F6DC039A42C3
:104DB00003D9664B1B889BB201E040F6DC03634AD3
:104DC0001380624B1B889AB240F6E9239A4203D8BB
:104DD0005E4B1B889BB201E040F6EA235B4A1380DE
:104DE0005C4B1B78DBB2092B0AD0584B1B889AB25C
:104DF000554B1A80554B00221A80FFF705FDB0E293
:104E0000AFE239237B62544B1B6807F1240107F1A1
:104E100010020846114698473B6800221A60A0E23B
:104E20004E4B4F4A1A6004F0D7FC9AE2BB681B88CD
:104E3000B3F5006F17D9BB681B88B3F5406F12D864
:104E4000BB6802331B88B3F5006F0CD9BB68023313
:104E50001B88B3F5406F06D8BB6802331A88BB685D
:104E60001B889A4201D200237CE2BB681A883D4B22
:104E70001A80BB685A883C4B1A80314B04221A7046
:104E80003B6800221A606CE2BB681B88B3F5807F28
:104E900001D9002366E2BB681B88DAB2334B1A7073
:104EA000274B07221A703B6800221A6059E27B6880
:104EB00000221A707B68013300221A702C4805F01A
:104EC00015FD034687F843307B68023397F843208B
:104ED0001A707B68DA1C97F84330104624491A464A
:104EE00005F08EFC97F84330DA1C3B681A6038E214
:104EF000204805F0FBFC034687F843307B6897F8B1
:104F000043201A707B685A1C97F8433010461949A1
:104F10001A4605F075FC97F843305A1C3B681A6036
:104F20001FE27B6801221A703B6801221A6018E2B6
:104F300054C0092058C009205CC00920701000101E
:104F40003F0A0010420A00109C040010440A00109E
:104F50007C0900103E0A0010480400101C000010DC
:104F600021BB05439E040010A0040010A204001001
:104F700014B20000CCB10000BB681B88DAB2A14BB0
:104F80001A70FFF741FCECE19E4B1B78DAB27B68AC
:104F90001A703B6801221A60E3E19B494FF000025E
:104FA0004FF00003C1E9002397494FF000024FF092
:104FB0000003C1E902230023FB6425E0924BD3E9FF
:104FC00000ABFB6C7A6813441B78DAB24FF0000335
:104FD000F96CC900A1F12006C1F1200003FA01F922
:104FE00002FA06F649EA060922FA00F049EA00093F
:104FF00002FA01F84AEA08024BEA09038249C1E9C8
:105000000023FB6C0133FB64FB6C072BD6DD002314
:10501000FB6424E07C4BD3E90289FB6C08337A689B
:1050200013441B78DAB24FF00003F96CC900A1F108
:105030002006C1F1200003FA01F502FA06F6354315
:1050400022FA00F0054302FA01F448EA040249EAB0
:1050500005036D49C1E90223FB6C0133FB64FB6C62
:10506000072BD7DD7DE10023BB640023FB640CE04C
:10507000BB6C1B02BB64FB6C7A6813441B78BA6C74
:105080001343BB64FB6C0133FB64FB6C032BEFDD50
:105090005E4B1A68BB6C1A445C4B1A605C4B022274
:1050A0001A705C4B08221A705BE17B681B781A4609
:1050B0007B6801331B781B021A437B6802331B7821
:1050C0001B041A437B6803331B781B061343FB63E3
:1050D0004E4BFA6B1A60FFF797FB42E10023FB642B
:1050E0000AE0FB6C7A6813441A784B49FB6C0B445A
:1050F0001A70FB6C0133FB64FB6C092BF1DD474B31
:1051000001221A703B680A221A602AE10023FB641C
:1051100007E0414AFB6C134400221A70FB6C013318
:10512000FB64FB6C092BF4DD3C4B00221A703B68DE
:105130000A221A6015E1354B1B68FB630023FB64F0
:105140000CE0FB6C7A681344FA6CD200F96B21FA1C
:1051500002F2D2B21A70FB6C0133FB64FB6C032BBE
:10516000EFDD3B6804221A60FBE03B6800221A6016
:105170002B4B00221A70264B03221A70254B092252
:105180001A7003F0F9FAFFF73FFBEAE00023FB6433
:105190000DE0FB6C7A681344224A1168FA6CD20065
:1051A00021FA02F2D2B21A70FB6C0133FB64FB6C81
:1051B000032BEEDD3B6804221A60D2E07B681B788B
:1051C0001A467B6801331B781B021A437B68023343
:1051D0001B781B041A437B6803331B781B0613439D
:1051E000184601F0C1F80F4B0122DA63B9E07B6881
:1051F00013221A707B68013337221A703B6802222F
:105200001A60AEE04C040010B8100010E40B00105F
:105210007C0900103F0A0010BC0B00102410001085
:105220007D09001058040010514B1B69002B0CBF66
:1052300000230123DBB21A467B681A703B68012207
:105240001A608EE0BB681B88002B0CBF0023012373
:10525000DBB21A46464B1A6183E003F0CDFA78645C
:105260007B6C002B08D07868796C402205F0C8FA76
:105270003B6840221A6074E07B6800221A703B6829
:1052800001221A606DE03B6800221A60394B00224F
:105290001A70394B0A221A7003F06EFAFFF7B4FA4B
:1052A0005FE0BB681B88DBB2184604F0E1F80346F8
:1052B0007B877B8F1B0A9BB2DAB27B681A707B6894
:1052C00001337A8FD2B21A703B6802221A6048E02A
:1052D000BB681B88DAB2BB6802331B8810461946CC
:1052E00004F0DCF83DE025487968062205F088FAEC
:1052F000214B0C221A7034E07B685A791C4B83F8DE
:1053000034207B681A791A4B83F835207B68DA7869
:10531000174B83F836207B689A78154B83F8372033
:105320007B685A78124B83F838207B681A78104BC8
:1053300083F839200E4B0122DA6312E0104B1B7800
:10534000DBB2022B01D100230CE00B4B0D221A70B3
:10535000BB681B88DAB20A4B1A7002E0002301E036
:1053600000BF012318465437BD46BDE8F08F00BF8B
:10537000580400107C0900103F0A00108C0900102E
:10538000410A001080B400AF0C4B02221A600C4B93
:1053900000221A600B4B04221A600B4B40F6344279
:1053A0001A600A4B03221A60094B02221A60034B4F
:1053B00001221A60BD465DF8047B7047044000403E
:1053C000E40B00100C400040184000401440004026
:1053D00000E100E080B483B000AF4FF040231B68D1
:1053E00003F00103002B6DD0394B1B685A1C384B5E
:1053F0001A60374B1B687B60364B9B697A68D31AFF
:1054000003F003033B60344B1B78002B03D0324B7B
:105410001B78012B09D17B6803F07F03002B03D19C
:105420002E4B01221A7037E036E02B4B1B78022BF3
:1054300008D17B6803F00103002B2DD1274B0122FB
:105440001A7029E0244B1B78032B25D1214B1B7D9F
:10545000032B21D13B68002B1ED11E4B9B8B9BB293
:10546000013B9AB21B4B9A831A4B9B8B9BB2002B2E
:105470000ED11A4B01221A70164B1B8C9BB20133B2
:105480009AB2144B1A84134BDA8B124B9A8303E0B3
:10549000134B4FF480721A607B68C3F30803002B30
:1054A00002D1104B01221A700F4A104B1B68C3F532
:1054B0004363043313600D4B00221A604FF0402306
:1054C00001221A600C37BD465DF8047B704700BFAF
:1054D000E40B0010580400107C0900107D09001036
:1054E0003CC00920E00B0010184000408409001067
:1054F00080B400AF0B4B04221A600B4B01221A70D0
:105500000A4B1B68C3F3130340F6354202FB03F258
:10551000074B1B681A44074B1A60BD465DF8047BB5
:10552000704700BFAC800240B0100010E40B0010C8
:1055300008400040DC0B001080B485B000AF7860FC
:105540007B6840F6354202FB03F2094BA3FB0213D2
:105550009A09084B1B681344FB60064B1A68FB68EA
:105560009A42FAD31437BD465DF8047B704700BFFA
:10557000D34D6210E40B001080B400AF3F4B3F4AA4
:10558000126842F000521A603D4B00221A603D4BF7
:1055900000221A603C4B00221A603C4B00221A6029
:1055A0003B4B00221A603B4B00221A603A4B002210
:1055B0001A603A4B00221A60394BFF221A60394BAD
:1055C000FF221A60384B394A1A60394A364B5A6002
:1055D000384A354B9A60344B374ADA60354B334A98
:1055E0001A60364A334B5A602F4A324B9A60314B1D
:1055F000314ADA60324B4FF080621A60314B01223F
:105600001A6000BF2F4B1B6803F00103002BF9D079
:105610002D4B254A12681A602C4B234A52681A6097
:105620002B4B214A92681A602A4B1F4AD2681A6093
:10563000134B4DF206021A60274B1B681B0DDAB2A2
:10564000264B1A60244B1B68C3F3130340F6354204
:1056500002FB03F2224B1B681A44224B1A60224BB6
:105660001B889AB2214B1A80214B00221A60214BD1
:1056700000221A60BD465DF8047B7047C4C00F402D
:1056800010410050304100505041005070410050D6
:1056900090410050B0410050D0410050F0410050C6
:1056A00008400050104000506010001008000340F7
:1056B00078100010CC0B0010329000882C100010D5
:1056C00080E100E0304000500041005004410050B3
:1056D000084100500C410050E40B0010E80B001092
:1056E00008400040201000109C0400108A0900109F
:1056F000000B0010AC10001080B483B000AF4A4B18
:10570000494A126842F000521A60484B00221A605F
:10571000474B00221A60474B00221A60464B00227A
:105720001A60464B00221A60454B00221A60454B16
:1057300000221A60444B00221A60444BFF221A6078
:10574000434BFF221A60434B01221A6000BF414BBA
:105750001B6803F00103002BF9D000237B6029E0D4
:105760003D4A7B681B0113443C4A1A607B689A00DF
:105770003B4B13441A4638497B681B010B445A6063
:105780007B68092B05DC7B6801331A01324B13441B
:1057900000E0002330497A6812010A44083213609D
:1057A0002D4A7B681B01134408332E4A5A607B68DC
:1057B00001337B607B680A2BD2DD2B4B264A1268B3
:1057C0001A602A4B244A52681A60294B224A92686E
:1057D0001A60284B204AD2681A60144B4DF2060218
:1057E0001A60254B1B681B0DDAB2244B1A60224B42
:1057F0001B68C3F3130340F6354202FB03F2204B50
:105800001B681A441F4B1A601F4B1B889AB21F4B10
:105810001A801F4B00221A601E4B00221A600C37A0
:10582000BD465DF8047B7047C4C00F401041005076
:1058300030410050504100507041005090410050A4
:10584000B0410050D0410050F0410050084000509D
:105850001040005030400050080B0010080003407A
:1058600078100010041000880041005004410050DE
:10587000084100500C410050E40B0010E80B0010F0
:1058800008400040201000109C0400108A090010FD
:10589000000B0010AC10001080B400AF254B1A684C
:1058A000254B1A60254B1B681B0DDAB2214B1A6081
:1058B000234B1A68234B1A60204B1B68C3F3130356
:1058C00040F6354202FB03F21F4B1B681A441C4B87
:1058D0001A601E4B1B889AB21D4B1A801D4B1B88E9
:1058E0009AB21A4B1A801C4B1B6803F00103002B61
:1058F0001BD01A4B1B6803F00103002B07D0184B79
:1059000001221A60174B1B685A1C164B1A60164B63
:105910001B6803F00103002B07D0144B01221A600F
:10592000134B1B685A1C124B1A60BD465DF8047B72
:10593000704700BFE80B001028100010E40B0010A7
:1059400020100010C80B0010084000408A09001009
:10595000880900109C0400100040005004400050D2
:1059600008400050000B00100C4000501040005048
:10597000AC10001080B500AF124B1B78DBB2013BBE
:105980000B2B1ED801A252F823F000BFBD59000016
:10599000C3590000C3590000BD590000C35900009D
:1059A000C3590000C3590000BD590000BD59000093
:1059B000BD590000C3590000BD590000FFF76CFF3E
:1059C00000BF80BD3E0A001080B400AF104B4FF006
:1059D00080521A600F4B0F4A126842F001021A609F
:1059E0000D4B0D4A126842F002021A600B4B0B4A33
:1059F000126842F001021A60094B4FF080621A608F
:105A0000084B4FF080521A60BD465DF8047B70472A
:105A100098C00920240003400400034010410050B6
:105A200000E100E09CC0092080B400AF214B4FF0A2
:105A300080521A60204B204A126822F001021A603C
:105A40001E4B1E4A126822F002021A601C4B4FF0D5
:105A500080621A601B4B00221A601B4B00221A60E6
:105A60001A4B00221A601A4B00221A60194B0022AE
:105A70001A60194B00221A60184B00221A60184B4A
:105A800000221A60174BFF221A60174BFF221A6080
:105A9000164B164A126822F001021A6000BF134B1F
:105AA0001B6803F00103002BF9D1BD465DF8047BB0
:105AB000704700BF98C00920240003400400034041
:105AC00080E100E010410050304100505041005052
:105AD0007041005090410050B0410050D041005002
:105AE000F04100500840005010400050304000503D
:105AF00080B500AF642003F065FD00BF03F058FDE2
:105B0000034603F00403002BF8D10A4B80221A60ED
:105B1000084B4FF480721A60074B10221A60064B34
:105B20004FF480721A60044B02221A60034B002269
:105B30001A7080BD5CC009203CC009203E0A0010DC
:105B400080B582B000AF2A4B1B78DBB2002B02D1AC
:105B50002923FB8008E0264B1B78DBB2012B02D106
:105B60004023FB8000E040E00D2047F6FF7103F08A
:105B700095FC122042F6223103F090FC142041F2F1
:105B80004B3103F08BFC202040F2011103F086FC26
:105B9000184B1B889BB2013B9BB20220194603F0B5
:105BA0007DFCFB880320194603F078FCFEF72CFEF1
:105BB00000BF03F0FDFC034603F04003002BF8D0C8
:105BC000612003F0FFFC00BF03F0F2FC034603F08A
:105BD0000403002BF8D0622003F0F4FC064B802273
:105BE0001A60054B4FF480721A600837BD4680BDBD
:105BF000420A00109C04001058C0092080B584B0EF
:105C000000AF7860334B1B78DBB2002B05D1292322
:105C1000BB8140F26143FB810BE02E4B1B78DBB272
:105C2000012B05D14023BB8140F26153FB8100E091
:105C30004DE00D2047F6FF7103F030FC122042F6D4
:105C4000223103F02BFC142041F24B2103F026FCFF
:105C5000FB892020194603F021FC7B689BB22C2095
:105C6000194603F01BFC7B681B0C9BB22D201946C8
:105C700003F014FC184B1B889BB2013B9BB2022023
:105C8000194603F00BFCBB890320194603F006FC00
:105C9000FEF7BAFD00BF03F08BFC034603F04003A0
:105CA000002BF8D0612003F08DFC00BF03F080FCD6
:105CB000034603F00403002BF8D0622003F082FCBB
:105CC000064B80221A60054B4FF480721A60103721
:105CD000BD4680BD420A00109C04001058C0092037
:105CE00080B59AB000AFF8600B467A60FB72002373
:105CF0007B6634E0FB6887F85E30FB681B0AFB605C
:105D000007F110027B6E134400221A7000233B66D9
:105D10001FE007F110027B6E13441B78DAB297F88C
:105D20005E3003F001013B6EC3F1070301FA03F398
:105D3000DBB21343DBB2DAB207F110017B6E0B4426
:105D40001A7097F85E305B0887F85E303B6E01335F
:105D50003B663B6E072BDCD97B6E01337B667B6E2B
:105D6000032BC7D9924B1B889BB2DBB2623BDBB2E1
:105D7000184602F083FB03468E4AD35CBB650023C2
:105D80007B6650E07A687B6E13441B7887F85E3040
:105D90007B6E043307F168010B44002203F8582C92
:105DA00000233B6639E097F85E3003F00102824938
:105DB000BB6D0B441B7853407B65BB6D01331946AB
:105DC0007E4BA1FB0323C81A400803449A091346DB
:105DD000DB019B1ACA1ABA6597F85E305B0887F830
:105DE0005E307B6E04337A6E043207F168010A4438
:105DF00012F8582CD1B23A6EC2F10702786D00FA4F
:105E000002F2D2B20A43D2B2D2B207F168010B4415
:105E100003F8582C3B6E01333B663B6E072BC2D90F
:105E20007B6E01337B66FA7A7B6E9A42AAD8FB7A44
:105E30000433FB720D2047F6FF7103F02FFB122095
:105E400042F6223103F02AFB142041F24B3103F0D9
:105E500025FB202040F6014103F020FB544B1B881A
:105E60009BB20220194603F019FB05200B2103F019
:105E700015FB0320402103F011FB2320142103F024
:105E80000DFBFB6803F00103002B05D02D204AF623
:105E9000AA2103F003FB04E02D2045F2555103F045
:105EA000FDFA082003F0E4FA0346A7F85230B7F8E9
:105EB0005230C3F308039BB243F49C439BB29BB2A2
:105EC0000820194603F0EAFA00BF03F071FB03460D
:105ED00003F04003002BF8D0612003F073FB00BFF8
:105EE00003F066FB034603F00403002BF8D0344BA9
:105EF0004FF480721A60334B80221A6000BF0E206C
:105F000003F0B6FA034603F01F030F2BF7D163200B
:105F100003F058FB00237B6621E000BF2A4B1B687F
:105F200003F00403002BF9D17B6EDBB2FA7AD31AAB
:105F300087F85F3097F85F30102B02D9102387F86D
:105F40005F3007F110027B6E134497F85F207020DA
:105F500011461A4603F0B6FA7B6E10337B66FA7A66
:105F60007B6E9A42D9D800BF0E2003F081FA034617
:105F700003F01F030F2BF7D1144B4FF480721A60FC
:105F8000642003F01FFB00BF03F012FB034603F085
:105F90000403002BF8D10E4B80221A60B7F8523060
:105FA0000820194603F07AFA6837BD4680BD00BF65
:105FB0009C040010FCA900007CA900001108040248
:105FC00038C0092058C0092054C009203CC009200D
:105FD0005CC0092080B400AFBD465DF8047B70470B
:105FE00080B500AF414B00221A70414B1B78002B4B
:105FF0000BD1022003F03CFA03461A463D4B1B88A6
:106000009BB2013B9A4247D16EE0394B1B78012B82
:1060100014D1384B1B889BB220339AB2354B1A806F
:10602000344B1B889BB2B3F51B6F35D9314B1B88A2
:106030009BB24F3B9AB22F4B1A802DE02C4B1B7812
:10604000022B0DD12C4B4FF480721A602B4B1B6826
:10605000184602F025F903461A46264B1A801BE023
:10606000234B1B78032B0BD1234B4FF480721A6008
:10607000234802F0DBF903461A461E4B1A800BE058
:106080001B4B1B78042B07D11B4B4FF480721A60FB
:106090001C4B1A88174B1A80642003F093FA00BF38
:1060A00003F086FA034603F00403002BF8D1114BEA
:1060B0001B889BB2013B9BB20220194603F0EEF90C
:1060C0000B4B1B78002B01D0FEF79EFB612003F0E9
:1060D00079FA00BF03F06CFA034603F00403002BC7
:1060E000F8D0622003F06EFA80BD00BF7D09001079
:1060F0007C0900109C04001038C00920E40B00103B
:106100005804001080090010B0B582B000AF002321
:106110003B60834B10221A6002F02EFB03F0ECF878
:10612000FFF72AFAFFF750FC7E4B1B78DBB2082BF7
:106130000BD101F0D7FE7C4BD3E900231C000025D6
:1061400023461846FFF75AFD01E0FFF7F9FCFEF77A
:1061500095FB0023FB71D0E0744B1B78DBB2002B66
:1061600001D0FFF73DFF6E4B10221A60FEF7FEF8DC
:1061700080237B7122E0062003F07AF903461B0A94
:106180009BB2BB716A4B1B78DBB2002B11D097F925
:10619000053013F1800F0CD1664B1B785BB203F115
:1061A000360297F906309A42A8BF1346BB71BB79F5
:1061B0007B7197F906301846FEF7F2F85E4B1B68C4
:1061C000002B03D15D4B1B68002BD4D05A4B1B68AE
:1061D00003F00103002B09D0594B1B683B60594B5E
:1061E0001A68574B1A60574B3A681A60534B1B6832
:1061F000002B07D0544B1B78DBB243F00203DAB21A
:10620000514B1A704C4B1B68002B00D16AE04A4B73
:106210001B68012B07D94C4B1B78DBB243F0010301
:10622000DAB2494B1A70FEF7F1F8414B1B78DBB23A
:10623000002B03D1454B1B78002B0CD0424B1B7815
:10624000DBB243F00803DAB23F4B1A700223FB7152
:10625000374B00221A703E4B1B785AB2354B1B78D5
:106260005BB236339A4209DB374B1B78DBB243F023
:106270001003DAB2344B1A700223FB71354B1B78D2
:10628000DBB2002B07D0FB79002B01D10123FB717E
:10629000304B00221A70FB79002B00D122E0FB79F1
:1062A000013BFB712C4B1B78022B0DD1254B1B683E
:1062B00000201946FEF73AF90346002B03D0274B7E
:1062C00010221A600EE00DE01E4B1B6800201946DC
:1062D000FEF72CF90346002B03D0204B10221A6046
:1062E000FFE700BF1E4B1B68184602F0E5FA124B91
:1062F00000221A60114B00221A601A4B1B78DBB285
:10630000012B3FF429AF174B1B78DBB2082B3FF46E
:1063100023AFFFF789FBFEF7CFFA0837BD46B0BDC4
:106320003CC009203E0A0010F80C00107D09001046
:10633000B01000104D040010000B0010AC10001045
:106340005004001054040010480A00107E09001088
:10635000040B0010E00B00107C09001038C009206D
:10636000E40B00103F0A001080B584B000AF7860E5
:10637000094B7A681A60786802F0BEFEF860FB6824
:106380009AB2054BDA80FB681B0C9AB2024B9A80DA
:106390001037BD4680BD00BF5804001080B500AF67
:1063A0001F48FFF7E1FF1F4B1F4A9A601D4B1F4A12
:1063B000DA601C4B01221A611A4B00221A64194B35
:1063C00000221A75174B00225A75164B00229A7537
:1063D000144B00229A61134B00229A83114B002226
:1063E000DA83104B0022DA830E4B00221A840D4B05
:1063F000002283F822200B4B00229A84094B0022B2
:106400009A62084B00229A85064B0022DA85054BDA
:10641000002283F83020064B00221A7080BD00BF96
:10642000D6BE898E5804001055555500AAAAAA0058
:106430007D09001080B500AF054800214FF484723B
:10644000FDF7E8FE024B4FF0FF32C3F8002180BD9C
:10645000EC0B001080B588B000AF0346FB71002341
:10646000FB60A44B01221A70A34BFA791A70FFF754
:1064700095FFA24B4FF080721A60A14B10221A6058
:1064800002F07AF902F038FFFFF776F8FFF79CFA8E
:10649000FFF756FBFEF7F2F90023FB7715E1994B66
:1064A0001B889BB2002B24D0642003F08BF800BF24
:1064B00003F07EF8034603F00403002BF8D1924B5F
:1064C0001B889BB2013B9BB20220194602F0E6FFFB
:1064D000612003F077F800BF03F06AF8034603F089
:1064E0000403002BF8D0622003F06CF8854B0022E7
:1064F0001A80864B1B78DBB2002B02D0FFF770FDB1
:1065000003E07F4B4FF480721A607D4B10221A60BB
:10651000FDF72CFF8023BB7422E0062002F0A8FFC9
:1065200003461B0A9BB2FB74794B1B78DBB2002B32
:1065300011D097F9123013F1800F0CD1754B1B78E5
:106540005BB203F1360297F913309A42A8BF1346A3
:10655000FB74FB7CBB7497F913301846FDF720FFE2
:106560006D4B1B68002B03D16C4B1B68002BD4D0E8
:10657000694B1B6803F00103002B09D0684B1B68B3
:10658000FB60684B1A68664B1A60664BFA681A60C3
:10659000624B1B68002B07D0634B1B78DBB243F0C8
:1065A0000203DAB2604B1A705B4B1B68002B00D100
:1065B00085E0594B1B68012B07D95B4B1B78DBB27D
:1065C00043F00103DAB2584B1A70FDF71FFF504B2E
:1065D0001B78DBB2002B03D1544B1B78002B0CD063
:1065E000514B1B78DBB243F00803DAB24E4B1A7002
:1065F0000223FB77464B00221A704D4B1B785AB290
:10660000444B1B785BB236339A4209DB464B1B780E
:10661000DBB243F01003DAB2434B1A700223FB776C
:10662000444B1B78DBB2002B07D0FB7F002B01D142
:106630000123FB773F4B00221A70FB7F002B00D118
:106640003DE0FB7F013BFB773B483C494FF4C87280
:1066500004F0D6F80023BB6125E000237B611CE039
:10666000BB693233DA007B6913442E4A1168BA6978
:106670000A441278D209D1B22F4AD154294B1A6850
:10668000BB691344274A1168BA690A441278520058
:10669000D2B21A707B6901337B617B69072BDFDD26
:1066A000BB690133BB61BB69312BD6DD244B1B6851
:1066B00021489847B860BB68002B00D10CE0164B0E
:1066C00000221A60154B00221A601E4B1B78DBB2A9
:1066D000FA799A423FF4E3AE1B4B4FF080721A6096
:1066E000FFF706FAFFF7A0F9FEF7E6F82037BD46F8
:1066F00080BD00BF420A00103E0A001000E100E029
:106700003CC00920440A00109C0400107D090010C0
:10671000B01000104D040010000B0010AC10001061
:106720005004001054040010480A00107E090010A4
:10673000040B0010E00B0010000D0010900E001074
:10674000980900103F0A001080E100E090B59BB06E
:1067500000AF0346FB71874B01221A70864BFA7912
:106760001A70864B01221A75854B4FF080721A60A1
:10677000844B10221A6001F0FFFF02F0BDFDFEF70E
:10678000BBFFFFF721F97D4B1B68184602F0B4FCF4
:1067900003461846FFF732FA46E27B4B1B889BB252
:1067A000002B29D0642002F00DFF00BF02F000FF93
:1067B000034603F00403002BF8D1744B1B889BB2F3
:1067C000013B9BB20220194602F068FE612002F0F4
:1067D000F9FE00BF02F0ECFE034603F00403002BB9
:1067E000F8D0622002F0EEFE674B1B889AB2684B2D
:1067F0001A80654B00221A80624B10221A60FDF746
:10680000B5FD00BF634B1B68002B0ED1624B1B68AC
:10681000002B0AD1614B1B78DBB2002B05D1604BFA
:106820001B78DBB2FA799A42ECD05D4B1B78DBB275
:10683000FA799A4200D0FEE1574B1B68002B07D033
:10684000584B1B78DBB243F00203DAB2554B1A7097
:10685000524B1B78DBB2002B00D02AE14D4B1B685A
:10686000002B00F0E18107F10803FB65434B1B6837
:10687000BB60464B1B889BB2DBB2623BDBB2184667
:1068800001F0FCFD03461A4613465B0013441B014E
:10689000454A1344BB6500237B6633E0434A7B6E65
:1068A00013441B781A067B6E01334049CB5C1B04F2
:1068B0001A437B6E02333D49CB5C1B021A437B6E4D
:1068C00003333A49CB5C13437B657B6E002B00DAC4
:1068D00003339B105C1C786D02F00EFC02467B6E4D
:1068E000002B00DA03339B109B00B96D0B441B682F
:1068F0005A40A30007F168010B4443F8602C7B6EFB
:1069000004337B667B6E032BC8DDFB6D05331B7880
:1069100003F03F0302333B653B6D272B00D9C8E0F2
:106920003B6D06339B08FB64FB6C0A2B0DD800BF44
:106930001F4B1A68FB6C99001C4B0B449A420FD2F8
:10694000154B1B68002BF3D00AE000BF194B1B68E6
:1069500003F00103002B03D00F4B1B68002BF5D075
:10696000154B154A126822F001021A6004237B6657
:1069700058E000BF420A00103E0A00105804001000
:1069800000E100E03CC00920440A00109C04001013
:10699000460A0010000B0010AC1000107D0900101A
:1069A0003F0A0010480A00104CAA0000781000109E
:1069B000044100501041005024000340A44A7B6E63
:1069C00013441B781A067B6E0133A149CB5C1B0470
:1069D0001A437B6E02339E49CB5C1B021A437B6ECB
:1069E00003339B49CB5C1343BB647B6E002B00DA03
:1069F00003339B105C1CB86C02F07EFB02467B6E7E
:106A0000002B00DA03339B109B00B96D0B441B680D
:106A10005A40A30007F168010B4443F8602C7B6ED9
:106A200004337B667B6E2B2BC8DD8A4B1B69002BE6
:106A300023D0884BD968FB6D1A1D3B6D0846114663
:106A40001A4601F01DFE78643B6D0633FA6D13445F
:106A50001B781A043B6D0533F96D0B441B781B0240
:106A60001A433B6D0433F96D0B441B7813433B64AD
:106A70007A6C3B6C9A4200D01BE0774B10221A6074
:106A8000764B1B6807F108021046984707F1080388
:106A900001201946FDF74AFD714B1B68C3F3130330
:106AA00040F6354202FB03F26E4B1B681A44694BF9
:106AB0001A64612002F086FD00BF02F079FD0346F2
:106AC00003F00403002BF8D0674B674A126822F0EA
:106AD00001021A6003E0654B1B6887F83F30644B86
:106AE0001B6803F00403002BF5D15D4B1B68C3F357
:106AF000130340F6354202FB03F25A4B1B68134462
:106B00003B66544B1A6C3B6E9A4205D93B6E03F1BF
:106B1000434303F5A0033B664E4B1B7D032B03D081
:106B20004C4B1B7D022B06D14A4B1B6C3A6ED21A82
:106B3000504B9A4203D8504B1B68012B37D1FFF7BB
:106B40002DFC4D4B00221A604C4B4FF480721A60A2
:106B50004B4B1B78DBB2012B06D1494B00221A703C
:106B6000484B00221A7066E0FB790A2B01D100BF66
:106B700061E0384B01221A75642002F023FD00BF4A
:106B800002F016FD034603F00403002BF8D13E4B40
:106B90001B889BB2002B03D03B4B1B889BB201E0B0
:106BA00040F66213394A1380394B01221A60294B8F
:106BB000DB882C20194602F071FC264B9B882D2087
:106BC000194602F06BFC334B1B78DBB2002B01D073
:106BD000FFF706FA284B1B68002B07DDFFF7FAF9D1
:106BE000254B1B685A1E244B1A6017E0FEF784FDE4
:106BF000FEF7EAFE264B1B68002B0CD0154B1B68DA
:106C0000184602F079FA03461846FEF7F7FF204BC4
:106C100000221A6002E0622002F0D4FC1E4B002227
:106C20001A601E4B00221A60164B1B78DBB2FA79F1
:106C30009A423FF4B2AD1A4B4FF080721A60FEF7E1
:106C400057FFFEF7F1FEFDF737FE6C37BD4690BDEE
:106C5000781000105804001038C009209C0900105A
:106C6000E40B0010084000402400034008000340EB
:106C70000C00034080F0FA02940900103CC0092087
:106C8000400A00103F0A0010460A00109C04001041
:106C9000500A00107D090010000B0010AC1000100D
:106CA00080E100E080B58CB000AF6A4B1B889BB2DE
:106CB000DBB2623BDBB2184601F0E0FB0346664AFA
:106CC000D35C3B620023FB610023FB620DE0FB69A8
:106CD0005B08FB61614AFB6A13441B78DB07FA69B6
:106CE0001343FB61FB6A0133FB62FB6A1E2BEEDD83
:106CF0001F23FB62A4E0FB695B08FB61574AFB6A48
:106D000013441B78DB07FA691343FB61544B1A6881
:106D1000FB699A4240F091800023BB6247E0002368
:106D2000FB7600237B6236E0BB6ADA007B6A1A449A
:106D3000FB6A13441F3B3B613B69B3F5487F00DBB3
:106D40002CE0464A3B6913441B787B61BB6A032BEA
:106D500015DD444A3B6A13441B787A6953407B61D2
:106D60003B6A01331946404BA1FB0323C81A400874
:106D700003449A091346DB019B1ACA1A3A627A69DC
:106D80007B6A02FA03F3DAB2FB7E1343DBB2FB76D3
:106D90007B6A01337B627B6A072BC5DD334B1A6844
:106DA000BB6A1344FA7E1A70BB6A0133BB62BB6ACA
:106DB0002D2BB4DD2A4B1B69002B2ED02B4B1B68CF
:106DC00005331B7803F03F030233FB60244BDA6882
:106DD000264B1B68043310461946FA6801F050FC34
:106DE000B860224B1A68FB68063313441B781A04F8
:106DF0001E4B1968FB6805330B441B781B021A43B2
:106E00001A4B1968FB6804330B441B7813437B60EF
:106E1000BA687B689A4200D017E0144B1B680120C7
:106E20001946FDF783FB124B10221A60114B1B68A9
:106E30000E4A12681046984707E0FB6A0133FB626E
:106E4000FB6AB3F5D87FFFF656AF012318463037FB
:106E5000BD4680BD9C040010FCA90000000D001080
:106E6000580400107CA9000011080402540400100A
:106E700038C009209C09001080B58AB000AF786046
:106E800000233B627B68FB617B681B79FB767B6838
:106E900005337B617B6806333B617B691B78063376
:106EA0007A681344FB60894B1B7D022B1CD1874BF6
:106EB00003221A75864B1A68844B9A61834BDB8BCD
:106EC000013B9AB2814B9A83804B00221A847F4BFC
:106ED00000229A627F4B1B78DBB2002B00F0F2801D
:106EE0007D4B28221A60EDE0784B1B7D032B6CD183
:106EF000FB7E03F00303FB72744B9B6A002B21D0D3
:106F0000724B1B8C9AB2714B9B8D9A421AD1704B6B
:106F10001A686E4B9A616D4BDA8D6C4BDA836B4B52
:106F2000DB8D013B9AB2694B9A83684B93F8302012
:106F3000664B83F82220654B5A8E644B9A84634BD0
:106F400000229A62FB7A032B3ED13B691B78002B0F
:106F50003AD17B68DA795D4B83F830207B6808335F
:106F60001B781A467B6809331B781B029BB21344BB
:106F70009AB2564B5A867B680A331B781A467B684E
:106F80000B331B781B029BB213449AB24F4BDA852A
:106F90007B6810331B781A467B6811331B781B0201
:106FA0009BB213449AB2494B9A85484B9B8D1A4623
:106FB000464B1B8C9BB2D21A47F6FE739A4203DCF7
:106FC000424B01229A627DE07CE0404B1B7D012B0D
:106FD00078D17B6804331B7803F00F03BB72BB7A54
:106FE000052B6FD1394BDB6B002B14D07B6806333C
:106FF0003A481946062203F0CFFB0346002B0AD07D
:107000007B680C3335481946062203F0C5FB03465E
:10701000002B00D056E02D4B02221A752B4B00227C
:107020001A6100237B620FE07B6A12337A68134493
:107030001B781A467B6ADB0002FA03F33A6A1343B1
:107040003B627B6A01337B627B6A032BECDD386A2F
:10705000FFF78AF97B6818331B781A047B681733AB
:107060001B781B021A437B6816331B7813431A469E
:10707000164B9A60154B9B68184602F03DF8024685
:10708000124BDA607B685A7E104B83F822207B68B3
:107090001A331B781A460D4B9A847B681C331B7875
:1070A0001A460A4BDA837B6827331B7803F01F03E9
:1070B000DAB2064B9A75054B9A7D044B5A75084B0C
:1070C00001221A702837BD4680BD00BF5804001049
:1070D000E40B0010400A0010940900108C0400100A
:1070E0007D09001080B500AFFFF758F9044B054A41
:1070F0001A600920FFF72AFB034B00221A7080BD9B
:107100009C090010796E00003E0A001080B592B014
:1071100000AF0346B9607A60FB7307F114030022E5
:107120001A60043300221A60043300221A60043308
:1071300000221A60043300221A60043300221A600D
:10714000043300221A60043300221A600433002240
:107150001A60043300221A60043300221A600433D8
:1071600000221A60043300221A8002337B68312B1C
:1071700001D931237B60FB7B3B7507F1140301339D
:107180001846B9687A6803F03BFB07F11403052041
:107190001946FDF7CBF94837BD4680BD80B584B0B0
:1071A00000AF7860544B1B889AB240F664139A4241
:1071B00014D1524B1B68C3F3130340F6354202FB54
:1071C00003F24F4B1B681A444E4B1A604E4B40F66D
:1071D00066121A804D4B01221A7089E0464B1B88BB
:1071E0009AB240F666139A427BD1444B1B68C3F3B4
:1071F000130340F6354202FB03F2414B1B68134474
:10720000FB60404B1B68FA689A4205D2FB6803F1A9
:10721000434303F5A003FB603A4B1B68FA68D21A9C
:107220003B4BDB8B43F2D40101FB03F3D90F0B443F
:107230005B101A44364BDB8B43F2D40101FB03F3A2
:10724000B2FBF3F3BB60BB68242B42D8314ABB6866
:1072500013441A782E4B9A752D4BDB8B5B089AB230
:107260002B4B9A832A4B00221A84294B00229A61C5
:10727000264B00221A70264B9B7D591C264B81FB06
:1072800003230B445A11CB17D21A1346DB001344C5
:107290009B001344CA1AD2B21D4B5A751C4B0322D1
:1072A0001A751B4B00221A611C4B03221A701C4BCF
:1072B0001C4A1A6003201C490122FFF727FF1B4BC1
:1072C0001B78DBB2002B03D0194B28221A600FE089
:1072D0000EE00D4B40F664121A800C4B01221A701E
:1072E00006E0094B40F664121A80084B01221A701E
:1072F0001037BD4680BD00BF9C040010E40B001099
:1073000008400040540A0010800900107D09001058
:107310005804001024AA0000A7C867DD7C090010EB
:107320009C090010796E00006E040010400A0010E5
:107330009409001080B586B000AF7860334B1B68AD
:10734000C3F3130340F6354202FB03F2304B1B68D4
:1073500013447B612F4B1B687A699A4203D27A6986
:107360002D4B13447B612B4B1B687A69D31A3B610D
:107370003A6946F2A7139A4200D843E0274BD3F864
:1073800000213B699A4203D9244B3A69C3F8002192
:10739000224BD3F8003103F5613303F25233204A14
:1073A000A2FB03139B0CFB811E4BDB8BFA899A42D9
:1073B0001ED11A4BD3F804315A1C184BC3F80421C0
:1073C000164BD3F80431052B19D1174B174A1A6005
:1073D000174B40F664121A80164B04221A70164B93
:1073E00001221A70022015490222FFF78FFE06E0E3
:1073F0000C4BFA89DA83094B0022C3F80421054BB0
:107400007A691A601837BD4680BD00BFE40B0010D2
:1074100008400040580A0010C0ABC6C2EC0B001078
:10742000C1A91991580400109C0900109D71000019
:10743000800900107C0900107D09001076040010FE
:1074400080B584B000AF7860284B1B69002B49D110
:107450007B6804331B78012B44D17B6805331B7890
:10746000002B3FD17B6808331B781A047B680733F5
:107470001B781B021A437B6806331B781343BB60DF
:107480007B680433B8681946022201F099F8024675
:10749000164B9A60154B0022DA600023FB6013E064
:1074A000124BDA68114B9968FB6821FA03F303F079
:1074B0000101FB68C3F1170301FA03F31A430B4BF5
:1074C000DA60FB680133FB60FB68172BE8DD074BD4
:1074D00001221A61064B074A1A600120064903225D
:1074E000FFF714FE1037BD4680BD00BF58040010E2
:1074F0009C090010357300006004001080B487B050
:1075000000AF78604FF0FF333B614FF0FF33FB601B
:1075100000237B6115E0224B7A6953F832207B68A7
:107520009A420BD11E4A7B69DB0013445B685A1CEC
:107530001B497B69DB000B445A602CE07B690133FB
:107540007B617B691F2BE6DD00237B6115E0144A1C
:107550007B69DB0013445A683B699A4202DB3B6952
:10756000002B07DA7B69FB600D4A7B69DB00134463
:107570005B683B617B6901337B617B691F2BE6DDC7
:10758000074BFA68796843F83210054AFB68DB005C
:10759000134401225A601C37BD465DF8047B7047D6
:1075A000EC0B001090B5A1B000AF786007F11C02A1
:1075B0004023104600211A46FCF72CFE01233B779E
:1075C000012387F82C30012387F82F30012387F817
:1075D0003C30012387F83E30012387F84C300123EB
:1075E00087F84E30012387F84F300023FB673FE0D8
:1075F000A24B1B889BB2DBB2623BDBB2184600F0A9
:107600003DFF03469E4AD35C3B670023BB6729E0EE
:10761000FB6F1B0107F180021A44BB6F1344643BEC
:107620001A7898493B6F0B441B785340DAB2FB6FD2
:107630001B0107F180011944BB6F0B44643B1A70B6
:107640003B6F01331946904BA1FB0323C81A400836
:1076500003449A091346DB019B1ACA1A3A67BB6FA7
:107660000133BB67BB6F0F2BD2DDFB6F0133FB67B1
:10767000FB6F032BBCDD2023FB67CDE0834B07F1C1
:107680000C040FCB84E80F004FF0FF33FB660023A0
:10769000BB6725E000237B671CE0FA6F7B6F134418
:1076A0007A6813441A78BB6F1B0107F180011944F3
:1076B0007B6F0B44643B1B789A4208D0BB6F9B00E6
:1076C00007F180021344002243F8742C05E07B6F1D
:1076D00001337B677B6F0F2BDFDDBB6F0133BB6734
:1076E000BB6F032BD6DD0023BB670EE0BB6F9B0097
:1076F00007F18002134453F8743C002B02D0BB6F97
:10770000FB6605E0BB6F0133BB67BB6F032BEDDD91
:10771000FB6E002B7DDB594B1B889BB2DBB2623BBF
:10772000DBB2184600F0AAFE0346554AD35C3B671D
:107730000023BB674BE0002387F86B3000237B6797
:1077400038E0BB6FDA007B6F1A44FB6F1344203BB9
:107750003B663B6EB3F5487F00DB2EE03B6E7A68FC
:1077600013441B787B66BB6F032B15DD454A3B6FCB
:1077700013441B787A6E53407B663B6F0133194686
:10778000414BA1FB0323C81A400803449A0913463E
:10779000DB019B1ACA1A3A677A6E7B6F02FA03F30F
:1077A000DAB297F86B301343DBB287F86B307B6F3C
:1077B00001337B677B6F072BC3DD354B1A68BB6FCB
:1077C000134497F86B201A70BB6F0133BB67BB6F14
:1077D000092BB0DD2E4B1B6803331B781A062C4B8C
:1077E0001B6802331B781B041A43294B1B680133A7
:1077F0001B781B021A43264B1B681B781343FB653F
:10780000F86DFFF77BFE224B1B6801201946FCF741
:107810008DFEFB6F0133FB67FB6FB3F53C7FFFF61B
:107820002DAF0023FB6720E01A4AFB6FDB001344F7
:107830005B68032B16DD174BFA6F53F8323018468E
:10784000FEF792FD144B154A1A60154B154A1A6043
:10785000154B00221A61002013490422FFF756FC41
:10786000002306E0FB6F0133FB67FB6F1F2BDBDDA3
:10787000012318468437BD4690BD00BF9C0400100C
:10788000FCA900007CA900001108040220B200003D
:1078900054040010EC0B001098090010A56C0000B7
:1078A0009C090010417400005804001080B500AF1E
:1078B0002CE0FEF7BFFD184B1B889BB203F00103C1
:1078C000002B03D0144B40F688121A80134BDB6B4D
:1078D000002B07D1FCF798FF114B124A1A600A20BF
:1078E000FEF7B8FD104B1B78DBB20A2B00D012E07C
:1078F00000200A490422FFF709FC0C4B0C4A1A60CD
:10790000064B00221A610A20FEF720FF064B1B7867
:10791000DBB20A2BCDD080BD9C04001058040010AF
:1079200098090010A57500003F0A00109C0900107E
:107930004174000090B589B000AF354A3B1D144634
:1079400020686168A26807C3A2891A800B23FB76AE
:107950000023FB610EE0FB690233FA69C2F1050204
:107960002C498A5C07F120010B4403F81C2CFB69AD
:107970000133FB61FB69052BEDDD274BD968FB7EED
:107980003A1D084611461A4600F0D6FD7861FB7E86
:107990007A69D2B207F120010B4403F81C2CFB7E5C
:1079A00001337A69120AD2B207F120010B4403F8BD
:1079B0001C2CFB7E02337A69120CD2B207F1200133
:1079C0000B4403F81C2C1BE0144B4FF080721A6020
:1079D000124B4FF080621A60FB7E0333DAB23B1D1C
:1079E0000F4811461A46FEF77BF90E4B4FF0807296
:1079F0001A600C4B4FF080621A606420FDF79CFD0A
:107A0000094B1B78DBB20C2BDED02437BD4690BD72
:107A100030B200008C0900105804001080E100E032
:107A2000D6BE898E00E100E03F0A001090B591B00B
:107A300000AF002387F83D305A4B10221A6000F047
:107A40009BFE594B80221A60122042F6223101F02F
:107A500025FD142041F24B3101F020FD202040F2A1
:107A6000011101F01BFD0320292101F017FD00BFCA
:107A700001F09EFD034603F04003002BF8D000BF49
:107A800001F096FD034603F00403002BF8D17AE0E1
:107A9000464B1B88FB876FE0FB8F013B9BB20220AC
:107AA000194601F0FBFC612001F08CFD00BF01F0E4
:107AB0007FFD034603F00403002BF8D0622001F0A1
:107AC00081FD4FF4FA737B6000BF7B68013B7B60F4
:107AD000002BFAD197F83D2013465B001344FA8F30
:107AE000120A92B2D2B207F140010B4403F8382CCB
:107AF00097F83D2013465B0013440133FA8FD2B24E
:107B000007F140010B4403F8382C97F83D20134649
:107B10005B0013449C1C062001F0AAFC03461B0AD0
:107B20009BB2DAB207F14003234403F8382C97F8EC
:107B30003D30013387F83D3097F83D30102B0DD1A3
:107B400007F1080304201946FCF7F0FC002387F82E
:107B50003D30174B1B68184600F0AEFE642001F064
:107B600031FD00BF01F024FD034603F00403002BA8
:107B7000F8D1FB8F0133FB87FA8F0E4B1B889BB22A
:107B800001339A4288DB0C4B1B78DBB2042B3FF4A9
:107B90007FAF0A4B00221A70094B10221A6044373B
:107BA000BD4690BD38C0092058C009209E04001071
:107BB000E40B0010A00400103F0A00103E0A001061
:107BC0003CC0092080B584B000AF0023FB735B4A42
:107BD00007F108031068186092889A80584B802239
:107BE0001A60122042F6223101F058FC142041F2B2
:107BF0004B3101F053FC202040F2011101F04EFC0A
:107C00000320292101F04AFC0620F12101F046FC65
:107C100000BF01F0CDFC034603F04003002BF8D079
:107C200000BF01F0C5FC034603F00403002BF8D1AC
:107C300079E0FB7B5B0007F11000034433F8083C5C
:107C4000013B9BB20220194601F028FC612001F0A3
:107C5000B9FC00BF01F0ACFC034603F00403002BA9
:107C6000F8D0622001F0AEFC4FF4FA737B6000BFE5
:107C70007B68013B7B60002BFAD1062001F0F8FB0A
:107C800003461B0A9BB2BB732E4B1B78DBB297F9E2
:107C90000E205BB29A4215DDFB7B012B09D0022B33
:107CA0000BD0002B00D021E0274B4FF480721A60DC
:107CB00007E0254B10221A6003E0234B02221A60D2
:107CC00000BF13E0FB7B012B08D0022B0AD0002B56
:107CD0000CD11E4B4FF480721A6007E01B4B102230
:107CE0001A6003E0194B02221A6000BFFB7B591C8B
:107CF000174B83FB0102CB17D21A13465B001344C8
:107D0000CA1A1346FB73134B1B68184600F0D4FDC8
:107D1000642001F057FC00BF01F04AFC034603F069
:107D20000403002BF8D10C4B1B78DBB2072B80D05F
:107D30000A4B00221A701037BD4680BD40B20000C9
:107D400058C00920A204001038C009203CC00920F6
:107D500056555555E40B00103F0A00103E0A00101E
:107D600080B500AF01F0BEFAFDF70CFB424800F011
:107D7000DBFC424B1B68184600F09EFD404B1B7815
:107D8000DAB2404B1B78DBB29A4274D03C4B1B7882
:107D9000DBB20D2B6ED801A252F823F06F7E0000EB
:107DA000E17D0000757E00000B7E00004F7E00002C
:107DB0001B7E0000417E0000557E0000ED7D00002E
:107DC000F97D0000FF7D0000D57D0000057E0000EC
:107DD0005B7E0000012001F07DF901F0FDFC4AE02E
:107DE000284B01221A70FEF78FF944E0254B082238
:107DF0001A70FEF789F93EE0FFF774F93BE0FFF7F0
:107E000055FD38E0FFF796FD35E01E4B03221A7052
:107E10001D481E4900F082FD2DE01A4B05221A7004
:107E20001A4800F067FD174B00221A70144B1B789C
:107E3000DBB2052B03D1124B00221A701BE01AE0B3
:107E4000104B06221A70114800F05EFD13E0FFF798
:107E5000EDFD10E0FFF7B6FE0DE00A4B0D221A70A3
:107E60000B4B1B78DBB2184601F086F803E0FDF7F8
:107E70003FFE00E000BF7CE7F5480000E40B001087
:107E80003F0A00103E0A0010420A00109C04001035
:107E9000410A001080B485B000AFC7E9000100239B
:107EA000FB730023FB7310E0D7E9002312F1FF32CC
:107EB00043F1FF33D7E9000102EA000203EA0103BC
:107EC000C7E90023FB7B0133FB73D7E9002352EAA8
:107ED0000301E9D1FB7B18461437BD465DF8047BEE
:107EE000704700BF80B584B000AF794BD3E9002361
:107EF0001346BB6077494FF000024FF00003C1E921
:107F000000230023FB7314E0F87BFB7B5900724BCA
:107F100083FB01235A11CB17D21A13469B0013443B
:107F20001B019B1ACA1AD2B26C4B1A54FB7B013349
:107F3000FB73FB7B4E2BE7D9BB68DB0DDBB203F099
:107F40001F03DAB2664B1A70BB68DB0CDBB203F0BE
:107F50000F03DAB2634B1A70BB681B09DBB203F084
:107F60001003DAB2BB68DB08DBB203F00803DBB254
:107F70001344DAB2BB689B08DBB203F00403DBB244
:107F80001344DAB2BB685B08DBB203F00203DBB276
:107F90001344DAB2BB68DBB203F00103DBB2134473
:107FA000DAB2514B1A70BB689B0A9BB2C3F3080349
:107FB0009AB24E4B1A80BB68DB09DBB203F0400378
:107FC000DAB2BB689B09DBB203F02003DBB21344D7
:107FD000DAB2BB685B09DBB203F01003DBB2134417
:107FE000DAB2BB681B09DBB203F00803DBB213444F
:107FF000DAB2BB68DB08DBB203F00403DBB2134484
:10800000DAB2BB689B08DBB203F00203DBB21344B5
:10801000DAB2BB685B08DBB203F00103DBB21344E6
:10802000DAB2334B1A70334B1B78002B4DD0324BE6
:1080300000221A700023FB7314E0FB7B2F4AD35CF1
:10804000DAB24FF0000310461946FFF723FF03464C
:108050001A46294B1B781344DAB2274B1A70FB7B64
:108060000133FB73FB7B092BE7D90023FB71002352
:10807000FB7312E0FB7B5900174B83FB01235A1162
:10808000CB17D21A13469B0013441B019B1ACA1A22
:108090001346BB73FB7B0133FB73FB7B4E2BE9D990
:1080A000BB7BDB08DBB2154AD35C1A46BB7B03F013
:1080B000070342FA03F303F00103002B05D0FB7919
:1080C0005A1CFA71054AB97BD1541037BD4680BDA0
:1080D000B8100010F80C0010553AB26720110010CB
:1080E0001B110010C81000101C110010CA10001045
:1080F0006F11001024100010C9100010BC0B0010EC
:1081000090B492B000AF13460246FA710A46BA71B3
:10811000BB80FB7903F01F03FB71BB7903F01F03E6
:10812000BB71BB88C3F30803BB805B4A07F11C0328
:10813000144620686168A26807C3A2891A80574A5A
:1081400007F10C03144620686168A26807C3A2897E
:108150001A8000237B640FE0BA887B6C42FA03F339
:10816000DBB203F00103DAB207F12C017B6C0B44A4
:108170001A707B6C01337B647B6C082BECDD002375
:108180007B6411E07B6C0933B9797A6C41FA02F2B5
:10819000D2B202F00102D2B207F148010B4403F857
:1081A0001C2C7B6C01337B647B6C042BEADD00238D
:1081B0007B640FE0FA797B6C42FA03F3DBB203F0E5
:1081C0000103DAB207F13C017B6C0B441A707B6C43
:1081D00001337B647B6C042BECDD0D237B6435E089
:1081E00007F12C027B6C13441B78002B2BD007F17A
:1081F0001C027B6C13441B7807F14802134413F8EC
:108200000C3C87F8423007F11C027B6C13441B784E
:1082100007F10C017A6C0A44127807F148010A440C
:1082200012F80C2C07F148010B4403F80C2C07F151
:108230000C027B6C13441B7807F14802134497F837
:10824000422003F80C2C7B6C013B7B647B6C002B85
:10825000C6DA002387F8433000237B6411E007F17E
:108260003C027B6C13441B781A467B6C02FA03F3C6
:10827000DAB297F84330134487F843307B6C01330C
:108280007B647B6C042BEADD97F843301846483753
:10829000BD4690BC704700BF48B2000058B2000015
:1082A00080B58AB000AF78607B689B08DBB203F0D2
:1082B0001F0387F826307B685B08DBB203F00103FD
:1082C00087F8253097F825309BB25B017B847B686B
:1082D0005B0DDAB24B4B1B785340DBB203F01F034C
:1082E00087F821307B681B0CDAB2474B1B78534070
:1082F000DBB203F01F0387F820307B68DB099AB2FA
:10830000424B1B8853409BB2C3F30803FB837B683B
:10831000DB0823F07E4323F00F03BB61B9693C4BBC
:10832000A3FB01239A0913469B0013441B019B1ACC
:10833000CB1A7B6197F8262097F821301344DBB2E3
:10834000DBB203F01F03DAB2324B1B78DBB25340CF
:10835000DBB2D9B297F825301A465201D31ADBB2F4
:10836000DAB297F820305340DBB2DAB2FB8B084622
:1083700011461A46FFF7C4FE0346FB74FA7C264BEF
:108380001B7813441A467B691A447B8CD118204B06
:10839000A3FB01239A0913469B0013441B019B1A5C
:1083A000CA1A1E4B9B5C87F827301D4B1B78002B8D
:1083B0001DD01C4B1B781A46BB69B3FBF2F102FBC4
:1083C00001F29B1AFB60FA7C134B1B7813441A468C
:1083D000FB681A447B8C1344124A1278B3FBF2F107
:1083E00002FB01F29B1A104AD35C87F8273097F8FA
:1083F00027309BB203F662139BB218462837BD465E
:1084000080BD00BF1B1100101C110010CA1000100D
:10841000A97464CFC81000106F1100102011001053
:1084200024100010C9100010CC10001080B584B0CA
:1084300000AF78607B685B7D184600F04BF8034620
:10844000FB817B685B7D1A467B689B7DD1180A4B5C
:1084500081FB03230B445A11CB17D21A1346DB00BE
:1084600013449B001344CA1AD2B27B685A75FB8925
:1084700018461037BD4680BDA7C867DD80B485B0FB
:1084800000AF0346FB71FB795B08FB71FB79002BA6
:1084900002D12523FB7315E0FB790B2B03D8FB7965
:1084A000013BFB730EE0FB790C2B02D12623FB73FF
:1084B00008E0FB79262B03D8FB79023BFB7301E034
:1084C0002723FB73FB7B18461437BD465DF8047BFE
:1084D000704700BF80B485B000AF0346FB71FB79E5
:1084E0000A2B06D8FB7903F2B2439BB25B00FB81F7
:1084F0001AE0FB79242B06D8FB7903F2B3439BB235
:108500005B00FB8110E0FB79252B03D140F6621361
:10851000FB8109E0FB79262B03D140F67A13FB811E
:1085200002E04FF41B63FB81FB8918461437BD46FC
:108530005DF8047B704700BF80B48BB000AFF8607B
:10854000B9607A60FB6823F07F437B621B4B7B61E1
:1085500000233B6227E03B6ABA6813441B78FB7632
:108560000023FB6119E0FA7E7B6A534003F00103AC
:108570003B61FB7E5B08FB767B6A5B087B623B6949
:10858000002B07D07B6A43F400037B627A6A7B6925
:1085900053407B62FB690133FB61FB69072BE2DD22
:1085A0003B6A01333B623A6A7B689A42D3DB7B6A5F
:1085B00018462C37BD465DF8047B704700605A00B2
:1085C00080B48DB000AFF860B9607A60FB68FB6280
:1085D0002A4BFB617B68013B7B622CE07B6ABA68BB
:1085E00013441B78FB7600233B621EE0FB6ADB0D25
:1085F0007B61FB6A5B0023F07F43FB62FA7E3B6A90
:10860000C3F1070342FA03F303F001027B6953400D
:10861000FA6A1343FB627B69002B03D0FA6AFB6999
:108620005340FB623B6A01333B623B6A072BDDDD53
:108630007B6A013B7B627B6A002BCFDA0023BB6243
:1086400000237B6210E0FA6A7B6A22FA03F303F0EC
:1086500001027B6AC3F1170302FA03F3BA6A1343F8
:10866000BB627B6A01337B627B6A172BEBDDBB6AE3
:1086700018463437BD465DF8047B704700C0B4002F
:1086800080B489B000AFF860B9607A60FB6823F00D
:108690007F43FB610023BB6112E0BB69BA681344EE
:1086A0001A78FB69DBB25340FB75FB691A0AF97D46
:1086B000094B53F821305340FB61BB690133BB6167
:1086C000BA697B689A42E8DBFB6918462437BD46E5
:1086D0005DF8047B704700BFA804001090B587B018
:1086E00000AFF860B9607A60FB685B883B82FB682A
:1086F0009B887B820B4B1C68FB6859787B681B68E6
:1087000007F11002084611461A46BB68A047786177
:108710007B69012B14BF00230123DBB218461C37F1
:10872000BD4690BD7432001080B582B000AF786055
:1087300001F0B6F90B4801F00FFE0B4B7A681A6096
:1087400002200A490A4A01F087F9FF20094901F08D
:10875000ADFD012001F0E2FA002318460837BD46BE
:1087600080BD00BF68B2000074320010DD860000DA
:10877000703100102CB3000080B400AF044B002215
:108780001A60044B00221A60BD465DF8047B7047F6
:108790005C0A0010600A001080B483B000AF134B75
:1087A0001B68DBB203F07F03FB71114B1B68DBB26C
:1087B00003F07F03BB71BB790133DBB203F07F03AE
:1087C0007B71FA797B799A4201D1002308E0084B4A
:1087D0001B685A1C064B1A60BB799A01054B13445F
:1087E00018460C37BD465DF8047B70475C0A0010E4
:1087F000600A00107011001080B483B000AF104BFD
:108800001B68DBB203F07F03FB710E4B1B68DBB20E
:1088100003F07F03BB71FA79BB799A4201D100233F
:1088200008E0074B1B685A1C054B1A60FB799A013C
:10883000054B134418460C37BD465DF8047B704762
:108840005C0A0010600A00107011001080B584B03E
:1088500000AF786007F10C031846FFF7CDFF034621
:10886000FB60FB68002B0AD0114B7A681A60FB682A
:1088700082201946402201F0ABFA012313E00C4B91
:108880001B687A68D21A0B4B9A420BD90323FB72EE
:10889000074B7A681A6007F10B0382201946012200
:1088A00001F096FA002318461037BD4680BD00BF80
:1088B000640A0010801A060080B584B000AF7860AA
:1088C000822001F04BFA0346FB73FB7B03F020038D
:1088D000002B02D17868FFF7B9FFFB7B03F0400360
:1088E000002B02D17868FFF7B1FF01F037FB10379A
:1088F000BD4680BD80B483B000AF78600C37BD4604
:108900005DF8047B704700BF80B483B000AF78602F
:108910000C37BD465DF8047B704700BF80B483B060
:1089200000AF786039600C37BD465DF8047B704756
:1089300080B400AF084B4FF080521A60074B074AD3
:10894000126842F002021A60054B4FF080521A6022
:10895000BD465DF8047B704798C0092004000340C1
:108960009CC0092080B400AF064B4FF080521A60C3
:10897000054B054A126822F002021A60BD465DF8F6
:10898000047B704798C009200400034080B500AF05
:10899000034B4FF080721A6000F0AEFC80BD00BF48
:1089A00000E100E080B500AF642000F00BFEFFF7AF
:1089B000D9FF024B4FF080721A6080BD80E100E069
:1089C00080B500AF0D2047F6FF7100F067FD122063
:1089D00042F6223100F062FD142041F24B3100F0EA
:1089E0005DFD20204FF4986100F058FD1E4B1B8860
:1089F0009BB2013B9BB20220194600F04FFD0320C1
:108A0000262100F04BFD2120032100F047FD2D2001
:108A100046F20F3100F042FD2C2049F6FE7100F0C5
:108A20003DFD00BF00F0C4FD034603F04003002BF2
:108A3000F8D0FFF77DFF612000F0C4FD00BF00F01B
:108A4000B7FD034603F00403002BF8D000BF0E204F
:108A500000F00EFD034603F01F030F2BF7D1622039
:108A600000F0B0FD80BD00BF9C04001080B485B054
:108A700000AF78600023FB6010E000BF0B4B1B6869
:108A800003F00403002BF9D0094B1B68DAB27968B4
:108A9000FB680B441A70FB680133FB60FB68232BF7
:108AA000EBDD1437BD465DF8047B70470C000340D6
:108AB0000800034080B500AF00F07AFD034603F0E4
:108AC0001003184680BD00BF80B483B000AF78604B
:108AD00039600C4B1B68C3F3130340F6354202FBAD
:108AE00003F2094B1B681A447B689A603B6842F2A8
:108AF000107202FB03F27B68DA600C37BD465DF84A
:108B0000047B7047E40B00100840004080B483B041
:108B100000AF786039607B689A697B689A603B68CF
:108B200042F2107202FB03F27B68DA600C37BD463A
:108B30005DF8047B704700BF80B485B000AF7860FB
:108B4000134B1B68C3F3130340F6354202FB03F2D9
:108B5000104B1B681344FB607B689A68FB689A4261
:108B600005D9FB6803F1434303F5A003FB607B6871
:108B70009B68FA68D21A7B68DB689A4234BF00238C
:108B80000123DBB218461437BD465DF8047B7047FD
:108B9000E40B00100840004080B483B000AF786060
:108BA0000C37BD465DF8047B704700BF80B483B0CE
:108BB00000AF78607B6800225A607B685A68064B79
:108BC00033F81220054B1A807B6801221A700C378B
:108BD000BD465DF8047B7047AC0800109C04001093
:108BE00080B582B000AF7860FFF7EAFE7B680222B2
:108BF0001A700837BD4680BD80B58CB000AF786074
:108C000007F1080300221A60043300221A600433BB
:108C100000221A60043300221A60043300221A6012
:108C2000043300221A60043300221A600433002245
:108C30001A60043300221A60043300221A600433DD
:108C4000234B1B68C3F3130340F6354202FB03F2C8
:108C5000204B1B681344FB627868FFF76DFF0346E7
:108C6000002B06D078680421FFF72EFF7B680322D3
:108C70001A70FFF71FFF0346002B19D0164B102266
:108C80001A6007F108031846FFF7F0FEFB6A07F1C8
:108C90000802062011461A46FBF72AFD0F4B102248
:108CA0001A6078680621FFF70FFF7B6803221A70AD
:108CB0007B681B78022B07D0642000F083FCFFF751
:108CC00051FE7B6801221A613037BD4680BD00BF6E
:108CD000E40B00100840004038C009203CC00920C7
:108CE00080B582B000AF78607868FFF725FF034653
:108CF000002B1ED07B685B685A1C0F4B1340002B67
:108D000003DA013B63F0030301331A467B685A60C0
:108D10007B685A68094B33F81220094B1A8078682F
:108D20000721FFF7D1FE7B6801221A617B680122CF
:108D30001A700837BD4680BD03000080AC080010E3
:108D40009C04001080B483B000AF78607B6801227F
:108D50001A700C37BD465DF8047B704780B58CB047
:108D600000AF786007F1080300221A600433002284
:108D70001A60043300221A60043300221A6004339C
:108D800000221A60043300221A60043300221A60A1
:108D9000043300221A60043300221A6004330022D4
:108DA0001A6004331E4B1B68C3F3130340F63542AD
:108DB00002FB03F21B4B1B681344FB62FFF77AFEB6
:108DC0000346002B29D0184B10221A6007F1080324
:108DD0001846FFF74BFEFB6A07F108020620114612
:108DE0001A46FBF785FC114B10221A60612000F037
:108DF000E9FB00BF00F0DCFB034603F00403002B9B
:108E0000F8D000BF0E2000F033FB034603F01F0331
:108E10000F2BF7D1622000F0D5FB3037BD4680BD67
:108E2000E40B00100840004038C009203CC0092075
:108E300080B582B000AF7860FFF73CFE0346002BA0
:108E400012D07B6804221A707B6801225A61164B8B
:108E50001B68C3F3130340F6354202FB03F2134BC6
:108E60001B681A447B689A617B681B69002B0FD0D2
:108E70007868FFF761FE0346002B09D07B68042267
:108E80001A707B6800225A6178680B21FFF71CFE7C
:108E90007B681B78022B04D0642000F093FBFFF763
:108EA00061FD0837BD4680BDE40B0010084000405E
:108EB00080B582B000AF78607B6805221A70786850
:108EC0000221FFF723FE0837BD4680BD80B582B082
:108ED00000AF78607868FFF72FFE0346002B25D09F
:108EE000642000F06FFB134B80221A60124B4FF48A
:108EF00080721A607B685B685A1C104B1340002B11
:108F000003DA013B63F0030301331A467B685A60BE
:108F10007B685A680A4B33F812200A4B1A807B6828
:108F200003221A7078680621FFF7F0FD0837BD4666
:108F300080BD00BF5CC009203CC009200300008048
:108F4000AC0800109C04001080B582B000AF7860BF
:108F50007868FFF7F1FD0346002B09D07B680122FA
:108F60001A707B6801221A6178680B21FFF7CEFD29
:108F70000837BD4680BD00BFB0B59EB000AF034608
:108F8000FB7107F1580300221A60043300221A60B3
:108F9000043300221A60043300221A6004330022D2
:108FA0001A60043300221A60043300221A6004336A
:108FB000244B07F13C041D460FCD0FC495E8070074
:108FC00084E80700204B07F124041D460FCD0FC491
:108FD00095E8030084E803001C4B07F10C041D46D0
:108FE0000FCD0FC495E8030084E80300FB79002B44
:108FF00002D0012B04D007E007F13C037B6707E0B8
:1090000007F124037B6703E0114B00221A7015E07F
:10901000FFF7BCFC0E4B1B78DBB20D2B03D000BF5F
:10902000FFF7C0FC0AE097F858309B007A6F1344B2
:109030001B6807F1580210469847EBE77837BD46A2
:10904000B0BD00BF54B3000070B3000088B300008F
:109050003F0A001080B500AF00F080FF80BD00BF68
:1090600080B582B000AF124B7B60124B3B6007E0D3
:109070003B681A1D3A607A68111D796012681A609F
:109080003A680D4B9A42F3D30C4B7B6004E07B684B
:109090001A1D7A6000221A607A68094B9A42F6D348
:1090A000FBF78AF8074B084A1A60FEF759FEFEE7FD
:1090B000F0B30000200000105C09001060090010EF
:1090C0007832001008ED00E00040000080B400AFEE
:1090D000FEE700BF80B582B000AF0346FB71FB79AD
:1090E000044A02FB03F3184600F018F80837BD469F
:1090F00080BD00BF40420F0080B485B000AF7860F3
:109100000023FB607B6893FAA3F3FB60FB681846BF
:109110001437BD465DF8047B704700BF80B483B050
:1091200000AF78607B689A087B68DB081A447B682C
:109130009B091A447B68DB091A447B689B0A1A4422
:109140007B68DB0A1A44074B1A6000BF054B1B689B
:10915000013B044A1360002BF8D10C37BD465DF883
:10916000047B7047680A001080B500AF00F036F845
:10917000104B00221A60104B4CF212721A600F4B07
:1091800040F2B1121A600E4B00221A600D4B4FF0E4
:1091900040521A600C4B00221A600C4B00221A60DD
:1091A0000B4B00221A600B4B00221A600A4B002264
:1091B0001A6080BD00C0092020C0092040C00920DD
:1091C00060C0092080C0092014C0092034C00920D3
:1091D00054C0092074C0092094C0092080B400AF95
:1091E000274B00221A60274B00221A60264B0022D0
:1091F0001A60264B00221A60254B00221A60254B6C
:1092000000221A60244B00221A60244B00221A60AC
:10921000234B00221A60234B00221A60224B0022AB
:109220001A60224B00221A60214B00221A60214B47
:1092300000221A60204B00221A60204B00221A6084
:109240001F4B00221A601F4B00221A601E4B002287
:109250001A601E4B00221A601D4B00221A601D4B23
:1092600000221A601C4B00221A601C4B00221A605C
:109270001B4B00221A60BD465DF8047B704700BF9F
:1092800000C0024004C0024008C002400CC00240BE
:1092900010C002401CC0024024C0024028C002404E
:1092A00000C0092020C0092040C0092060C009205A
:1092B00080C0092040C0024044C0024048C0024073
:1092C0004CC0024050C002405CC0024064C002403A
:1092D00014C0092034C0092054C0092074C00920DA
:1092E00094C0092080B500AFFFF73EFF00F060F8A2
:1092F00000F094F980BD00BF80B400AF164B164A51
:10930000126822F4404242F400421A60124B124AA0
:10931000126822F4405242F400521A600E4B0E4A78
:10932000126822F4403242F400321A600A4B0A4AB0
:10933000126822F4402242F400221A60074B4FF0D8
:1093400080521A60064BC7221A60064B0C221A6024
:10935000BD465DF8047B704700C0024098C00920FC
:10936000000003400400034080B400AF0D4B0D4AE1
:10937000126822F470121A600B4B0B4A126822F02A
:10938000C0621A60094B094A126842F420121A603E
:10939000064B064A126822F4A0121A60BD465DF818
:1093A000047B704704C0024000C0092044C0024052
:1093B00080B500AFFFF7D8FF094B4FF400721A6079
:1093C0003220FFF7ABFE074B20221A60044B4FF40C
:1093D00080421A600D2047F6FF7100F05FF880BDF3
:1093E00038C0092058C0092080B485B000AF0346BA
:1093F0003960FB71FB79013B012202FA03F3FB6048
:10940000184B20221A601EE03A68FB681340002BBC
:1094100003D0154B01221A6002E0124B01221A60A0
:109420003B685B003B60104B10221A600F4B1B68BF
:1094300003F00203002B03D03B6843F001033B60C1
:10944000084B10221A60FB795A1EFA71002BDBD1EF
:10945000054B20221A603B6818461437BD465DF85C
:10946000047B70475CC0092058C0092054C0092003
:1094700080B584B000AF0346FB71FB7963F07F03D6
:10948000DBB21B04FB601820F968FFF7ADFFB86082
:10949000BB689BB218461037BD4680BD80B584B00E
:1094A00000AF02460B46FA71BB80FB791A04BB88F9
:1094B0001343FB601820F968FFF796FF1037BD468D
:1094C00080BD00BF80B485B000AF0B463A60024655
:1094D000FA71BB7180233B73334B20221A60002347
:1094E000FB7318E0FA793B7B1340DBB2002B03D00F
:1094F0002E4B01221A6002E02B4B01221A60FB79ED
:109500005B00FB71294B10221A60274B10221A6056
:10951000FB7B0133FB73FB7B072BE3D90023FB733E
:1095200026E0FB7B3A6813441B787B730023BB73F4
:1095300018E07A7B3B7B1340DBB2002B03D01B4B44
:1095400001221A6002E0184B01221A607B7B5B004B
:109550007B73164B10221A60134B10221A60BB7BD0
:109560000133BB73BB7B072BE3D9FB7B0133FB735D
:10957000FA7BBB799A42D4D30023FB7308E00B4BF0
:1095800010221A60084B10221A60FB7B0133FB7318
:10959000FB7B072BF3D9054B20221A601437BD46FD
:1095A0005DF8047B704700BF5CC0092058C00920EB
:1095B00080B500AF08200021FFF716FF0346DBB29D
:1095C000184680BD80B582B000AF0346FB71FB79C1
:1095D00008201946FFF708FF0346DBB21846083794
:1095E000BD4680BD80B500AF00200021FFF756FFCB
:1095F00000BF0020FFF73CFF0346002BF9D10020FD
:109600004FF40041FFF74AFF00BF0020FFF730FF93
:109610000346B3F5004FF8D180BD00BF80B500AF61
:109620005E4B44F23A021A605D4B00221A605D4BB9
:109630005C4A126822F002021A605B4BAA221A608E
:10964000594B55221A6000BF584B1B6803F000733A
:10965000002BF9D1534B534A126822F001021A60D1
:10966000514BAA221A60504B55221A6000BF4F4B33
:109670001B6803F08073002BF9D14D4B00221A6058
:10968000FFF7B0FF082041F27051FFF707FF60209D
:10969000FFF798FF00BFFFF78BFF034603F040037F
:1096A000002BF8D0434B20221A6000BF414B1B68AF
:1096B00003F04003002BF9D03F4B08221A603F4BC8
:1096C00000221A60364B01221A603D4B3D4A1A6057
:1096D000354BAA221A60344B55221A60314B314A5D
:1096E000126842F001021A602F4BAA221A602E4B18
:1096F00055221A6000BF2D4B1B6803F08073002BAE
:10970000F9D02B4B03221A60264B264A126842F0EE
:1097100002021A60244BAA221A60234B55221A60B7
:1097200000BF224B1B6803F00073002BF9D0264BBF
:1097300022221A60254BAA221A60244B55221A6055
:10974000234B234A126842F001021A601F4BAA22DF
:109750001A601E4B55221A6000BF1E4B1B6803F493
:109760008073002BF9D000BF1A4B1B6803F4806391
:10977000002BF9D0164B164A126842F002021A600A
:10978000124BAA221A60114B55221A6000BF114BCE
:109790001B6803F40073002BF9D080BD00C00F409C
:1097A0000CC10F4080C00F408CC00F4088C00F40DC
:1097B00004C10F40A0C10F40A8C10F40ACC10F4071
:1097C00084C00F4018000100A4C00F40ACC00F407F
:1097D000A0C00F40A8C00F4080B500AFFFF7FEFC4F
:1097E0000A4B02221A604FF080434FF08042126809
:1097F00042F003021A60064BAA221A60044B55225B
:109800001A600120FFF766FC80BD00BF3CC0092044
:109810000800004080B588B000AFF860B9607A6099
:10982000FB681B785B09DBB203F00303FB61FB6998
:10983000022B0ED100237B6107F11403F86819464F
:10984000BA687B6800F0CAFC0346002B01D07B6934
:109850000FE00A4BFA6953F82230BB61BB69002B59
:1098600001D1002305E0BB69F868B9687A689847B8
:10987000034618462037BD4680BD00BF800A001051
:1098800080B584B000AF0346FB718020012100F059
:109890007DFA074BBB600023FB6002E0FB680133ED
:1098A000FB60FB68072BF9DD1037BD4680BD00BFAC
:1098B0006C0A001080B582B000AF0E4B1B68402BC5
:1098C000A8BF40237B600C4B1A687B688020114640
:1098D0001A4600F07DFA084B1A687B681A44064B5A
:1098E0001A60044B1A687B68D21A024B1A60083758
:1098F000BD4680BD780A0010740A001080B584B09F
:1099000000AF02460B46FA71BB71FB79002B40F0A9
:109910009180BB7903F00403002B41D0002049491A
:10992000082200F0A3FA474B1B785B09DBB203F077
:109930000303FB60444BFA6853F82220434B1A6040
:10994000404BDB881A46424B1A603E4BDB881A4676
:10995000404B1A603B4BDB88002B07D0394B1B7800
:10996000DB09DBB203F00103002B68D0354839492D
:10997000364AFFF74FFF0346002B04D1BB79184648
:10998000FFF77EFF5BE02F4BDB881A46314B1B68ED
:109990009A42A8BF1A462E4B1A60FFF78BFF4EE083
:1099A0002B4B1B68002B3EDD284B1A68284B1B688D
:1099B000002011461A4600F059FAB860BB68002B27
:1099C00004DABB791846FFF75BFF38E01F4B1A68D3
:1099D000BB681A441D4B1A601D4B1A68BB68D21A2B
:1099E0001B4B1A601A4B1B68002B28D1154B1B7898
:1099F0005B09DBB203F00303FB60134BFA6853F817
:109A00002220124B1A600F481249104AFFF702FF3A
:109A10000346002B04D1BB791846FFF731FF0EE057
:109A2000FFF748FF0BE000200021002200F01EFAA3
:109A3000B86004E0FB79802B01D1FFF73BFF1037C2
:109A4000BD4680BD6C0A0010900A0010740A001018
:109A5000780A00107C0A001080B485B000AFF8606E
:109A6000B9607A60074BFA68B96843F82210064B70
:109A7000FA68796843F822101437BD465DF8047B14
:109A8000704700BF800A0010900A001080B483B0B5
:109A900000AF0346FB710C37BD465DF8047B704791
:109AA00080B500AF00F024FB0D4800F011F9002054
:109AB0000C4900F0DBF880200A4900F0D7F80020BC
:109AC000402100F0B7F88020402100F0B3F80020DA
:109AD0000549064AFFF7C0FF0123184680BD00BFB5
